:100000000C946F020C948C020C948C020C948C0255
:100010000C948C020C948C020C948C020C948C0228
:100020000C948C020C948C020C946F180C94AB17EB
:100030000C9471110C948C020C948C020C948C0214
:100040000C948C020C948C020C948C020C948C02F8
:100050000C948C020C94FF100C948C020C948C0267
:100060000C948C020C948C020C948C020C948C02D8
:100070000C948C020C948C020C948C020C948C02C8
:100080000C948C020C948C020C948C020C948C02B8
:100090000C948C020C948C020C948C020C948C02A8
:1000A0000C948C020C948C020C948C020F0411049E
:1000B0001C0413041504170419041B041E04200453
:1000C00022042D042404260428042A042C042F04CA
:1000D0002805280566056605A205C205A407FD07D3
:1000E0000406FD07010701070E070E070E070E079E
:1000F0000E070E070E070E070E070E070E070E0758
:100100000E070E070E070E071F0747074C0753077A
:100110006B075A095D0960096309660969096C0979
:100120009E13A313AD13A113A613AB13A913BC15F0
:10013000E3158317E31583172B164E1683174C17F9
:100140005F17C51CC51CD81CD81CCE1CD81CD81CBD
:10015000D81CC51CC51CD31CD81CD81CD31C3500EE
:1001600029003900E100010000001E0014000461B4
:100170001D00010001001F001A0016641B00010091
:100180002B002000080007680600500028412100CD
:100190001500096219004F000100220017000A0033
:1001A000050000000100010002530000000F0000E4
:1001B0000100010002530000000F000001002300B5
:1001C0001C000B00110000000100240018000D723B
:1001D00010005200010025000C000E78360051007E
:1001E0002C41260012000F7437002F002A00270030
:1001F000130033713800300001002D00310034004D
:1002000000722E0000000100010001000100010049
:1002100000003A001E0220022202010001003B0001
:100220001F0221022302010001003C002F022602CE
:100230002F00010001003D003002270230000100C4
:1002400001003E00310235003502000001000100CE
:100250000100000001000000010001000100000099
:100260000100000001003F0001000100010000004A
:1002700001004000240021001E0027000100410071
:10028000250022001F003700010042002600230045
:1002900020002E0001004300540055005600570076
:1002A0000100010001000100010001000000010047
:1002B0000100010001000100000001000100010037
:1002C0000100010001000100010001000100010026
:1002D000010001000100FA000100F200010001002C
:1002E0000100F9000100F30001000100010001001C
:1002F00001000000010001000100000001000000F9
:1003000001000100010000000100000001000100E7
:100310000100010001000000010001000100F400E3
:100320000100F000010001000100F5000100F100F2
:1003300001000100010001000100010001000100B5
:1003400001000100010001000100010001000100A5
:1003500001000100000005010902A1018502090157
:10036000A10005091901290515002501950575014B
:10037000810295017503810105010930093115815B
:10038000257F95027508810609381581257F95011D
:1003900075088106050C0A38021581257F950175BF
:1003A000088106C0C005010980A10185031601006E
:1003B0002603001A81002A8300751095018100C070
:1003C000050C0901A1018504160100269C021A01F1
:1003D000002A9C02751095018100C005010906A143
:1003E000018505050719E029E71500250195087520
:1003F00001810205081901290595057501910295EC
:1004000001750391010507190029EF1500250195D4
:10041000F075018102C005010906A101050719E077
:1004200029E71500250195087501810295017508D8
:1004300081010508190129059505750191029501AC
:10044000750391010507190029FF150026FF009586
:100450000675088100C009023B00020100A0FA09EC
:1004600004000001030101000921110100012240E3
:10047000000705810308000A0904010001030000C8
:100480000009211101000122C0000705820320009C
:100490000A1201100100000008EDFE07130100011F
:1004A00002030104033000000016034500720067D8
:1004B000006F0044006F007800200045005A0000E3
:1004C0000016034500720067006F0044006F00785B
:1004D00000200045005A0000000403090400112414
:1004E0001FBECFEFDAE0DEBFCDBF11E0A0E0B1E08C
:1004F000E2E2F4E402C005900D92AC3BB107D9F7FB
:1005000022E0ACEBB1E001C01D92A23FB207E1F7DF
:100510000E943F1A0C940F220C9400008F929F921D
:10052000AF92BF92CF92DF92EF92FF920F931F9301
:10053000CF93DF93CDB7DEB728970FB6F894DEBF21
:100540000FBECDBFFC01F080118183819481892B86
:1005500009F441C61F3F21F40FEFF01609F43BC622
:100560006F0185E0DE01119601900D928A95E1F709
:10057000F601228189819A81222349F00E949B12EF
:10058000082F682F89819A810E94141303C00E944A
:10059000E712082F26E0129FF001112434E5039F93
:1005A000E00DF11D1124EF0DF11DEE0FFF1FE25ABA
:1005B000FE4F05911491F6018281882309F4F2C05F
:1005C000033EFCE51F07C1F050F4013E3CE5130774
:1005D00081F0023E8CE51807B9F481E010C0043EBA
:1005E0009CE5190759F0053EECE51E0769F484E027
:1005F00006C01092AD0205C082E001C083E0809386
:10060000AD020E94D70A74C00130F0E81F0708F459
:100610006FC07801E894F7F880917C028093BC0168
:1006200010927C028091AD02813071F048F08230EE
:10063000D9F08430F9F486EE0E94501F88E118C08A
:1006400082EE0E94581F16C080EE0E94581F81EE55
:100650000E94581F88E10E94501F81EE0E94E91EEF
:1006600080EE0E94E91E06C082EE0E94581F87E5B8
:100670000E94501F8FE39CE90197F1F700C0000032
:100680005CE0A52EB12CC7010A2C02C09695879577
:100690000A94E2F7282F2F7041F0822F90E02A3041
:1006A00010F44D9604C0069702C087E290E00E94C5
:1006B000501F94E0A91AB108ECEFAE16EFEFBE069A
:1006C00011F78091AD02813039F040F0823031F085
:1006D000843051F488E206C08CE204C082EE0E94AD
:1006E000E91E02C00E94501F8091BC0180937C02D1
:1006F000073DFCE51F0709F4D7C008F001C105312B
:100700003CE5130708F0BCC402308CE5180708F07C
:100710005FC001159CE5190709F047C1F601828108
:10072000882309F458C510927C020E94C11EFFEF75
:1007300004E31CE0F15000401040E1F700C000006D
:10074000F89481E08093E00080E28093D8001092DA
:10075000C9008FE19EE40197F1F700C000001DBAC7
:10076000109268001CBC10BE1FBA10927A00109242
:100770006E0010926F001092710010927200109231
:10078000C9001092BC0014B817B81AB81DB810BA36
:100790001092BC0015B818B81BB81EB811BA0C944A
:1007A000003F19C5013020E8120708F4A1CF073D2A
:1007B000FCE51F0709F478C008F0A2C005313CE54C
:1007C000130708F05DC402308CE5180708F4E8C090
:1007D000F6018281882309F4F1C080E090E00E9454
:1007E0007A208D3E9E4F11F00E94FD1184E090E032
:1007F0000E94722090E09093C0028093BF02F801A3
:10080000E350FC45E231F10530F4EA5AFF4F8091A4
:10081000BF020C94DC208091BF02816027C08260FF
:1008200025C0846023C0806121C080621FC08064B5
:100830001DC080681BC08460886018C08E7F16C091
:100840008D7F14C08B7F12C08F7E10C08F7D0EC035
:100850008F7B0CC08F770AC08B7F877F07C087FB99
:10086000222720F991E0922790FB87F98093BF021D
:100870006091BF0284E090E00E94802010927C0290
:1008800028960FB6F894DEBF0FBECDBFDF91CF9193
:100890001F910F91FF90EF90DF90CF90BF90AF909E
:1008A0009F908F900C94C11EF6018281882351F095
:1008B0001092C2010E944F119093BF018093BE011C
:1008C00082E037C080917C0285FF05C081E0809383
:1008D000C2018093C3018091C20181110FC0809138
:1008E000BE019091BF010E942511883C910530F412
:1008F00086E20E94581F86E20E94E91E82E03CC008
:100900000C3D2CE5120709F4F4C308F03CC4083D83
:100910008CE5180709F006C4F60182818823E9F006
:100920001092C3010E944F119093C1018093C001A6
:1009300080E228960FB6F894DEBF0FBECDBFDF91E0
:10094000CF911F910F91FF90EF90DF90CF90BF90CC
:10095000AF909F908F900C94DF1E80917C0281FF5E
:1009600005C081E08093C2018093C3018091C301DF
:10097000882309F4C6C380E228960FB6F894DEBF38
:100980000FBECDBFDF91CF911F910F91FF90EF90E0
:10099000DF90CF90BF90AF909F908F900C94D41E1B
:1009A00001159CE5190709F416C401301C4509F42A
:1009B0005CC381E08093C2018093C301F601828110
:1009C00000811181882349F0C8010E949B12F82EF2
:1009D000682FC8010E94141304C0C8010E94E712C6
:1009E000F82EB8018F2D0E94DD0A182F382FF6013E
:1009F000258122952F700281011110927002809141
:100A00006E028770A9F0002399F080E2810F883090
:100A100078F082E02F8338879E830E94E0138091D4
:100A20006E028770EE24E3942F8138859E818111B8
:100A3000E12CA92EA2944FE0A422B12CFCE0AF1629
:100A4000B10408F0DAC2F501E859FF4F0C94DC203C
:100A5000892F807F9F70F92E882319F0F29480EF00
:100A6000F8220023B9F0FF2009F458C280E2810F78
:100A7000883010F0311106C090917C02F92AF09272
:100A80007C0205C090917002F92AF09270020E94D7
:100A9000551244C2812F38870E94E91E3885FF20F5
:100AA00009F4ABC2105EF094183010F0311106C09A
:100AB00090917C02F922F0927C0205C09091700224
:100AC000F922F09270020E94551297C2492F407F7E
:100AD000892F8F70403211F08295807F332319F077
:100AE0003130E9F025C0002381F0309171022223DA
:100AF00051F0213041F4982F932B391709F47DC21E
:100B0000909371027AC2832B91C1222319F0213074
:100B100009F473C28E830E944F128E818DC100230F
:100B200021F0223008F069C281C1211166C284C15E
:100B3000002321F0222309F479C1F0C1222309F412
:100B40007BC1FEC1292F26952695237030E0211503
:100B5000310521F02130310559F04FC2002319F041
:100B6000812F937002C080E090E00E94B50A53C2CA
:100B7000002319F0812F937002C080E090E00E9462
:100B80009F0A49C20023F9F0153F51F0163F71F05A
:100B9000143FA9F48091C4019091C50181600BC0FC
:100BA0008091C4019091C501826005C08091C4010B
:100BB0009091C50184609093C5018093C401812FF9
:100BC0000E9497101EC0153F51F0163F71F0143F60
:100BD000A9F48091C4019091C5018E7F0BC08091D2
:100BE000C4019091C5018D7F05C08091C401909191
:100BF000C5018B7F9093C5018093C401812F0E9412
:100C0000CD0F0E945B1107C2892F837009F079C054
:100C10000111FFC1812F829586958770880F880FFB
:100C2000412F4F7050E060E070E04A015B01082EF8
:100C300004C0880C991CAA1CBB1C0A94D2F714FF90
:100C400014C04FE050E060E070E08A019B0104C0F6
:100C5000000F111F221F331F8A95D2F7B901A80177
:100C6000409550956095709503C040E050E0BA0102
:100C7000969596959370892F90E00091720210914D
:100C80007302209174023091750282309105A9F0AF
:100C900083309105E9F0019759F0482959296A29CB
:100CA0007B29CB01BA01602371238223932326C0C1
:100CB000802A912AA22AB32A1BC0482959296A29C5
:100CC0007B29CB01BA01602771278227932716C0A1
:100CD000CB01BA0160237123822393230E941A144B
:100CE000409172025091730260917402709175028A
:100CF000CB01BA01682979298A299B290E941A14F3
:100D000088C1002319F0892F817001C0869588233E
:100D100009F47FC1812F829586958770880F880F8F
:100D2000412F4F7050E060E070E04A015B01082EF7
:100D300004C0880C991CAA1CBB1C0A94D2F714FF8F
:100D400014C04FE050E060E070E08A019B0104C0F5
:100D5000000F111F221F331F8A95D2F7B901A80176
:100D6000409550956095709503C040E050E0BA0101
:100D7000969596959370892F90E000916A02109154
:100D80006B0220916C0230916D0282309105A9F0C6
:100D900083309105E9F0019759F0482959296A29CA
:100DA0007B29CB01BA01602371238223932326C0C0
:100DB000802A912AA22AB32A1BC0482959296A29C4
:100DC0007B29CB01BA01602771278227932716C0A0
:100DD000CB01BA0160237123822393230E94441321
:100DE00040916A0250916B0260916C0270916D02A9
:100DF000CB01BA01682979298A299B290E944413C9
:100E000008C1412F50E0FA01E05EF109E531F1053A
:100E100008F07FC0EC58FF4F0C94DC201F70892F26
:100E20008F71002331F00E94F913812F0E94DF1E81
:100E3000E4C00E94BB13812F0E94D41EDEC0002399
:100E400011F12111DAC0292F2F7181E090E0A0E08B
:100E5000B0E0AC01BD0104C0440F551F661F771FF1
:100E60002A95D2F780916A0290916B02A0916C0250
:100E7000B0916D028A019B01082719272A273B2779
:100E8000C901B80125C0223008F0B7C0DCCF00236B
:100E900029F0892F8F712EC00023D9F3892F8F71EC
:100EA0000E94BB13AAC0002381F0292F2F7181E07B
:100EB00090E0A0E0B0E0BC01CD0104C0660F771F58
:100EC000881F991F2A95D2F703C060E070E0CB011C
:100ED0000E94441392C0002381F0192F1F71812FAB
:100EE0000E94F91328E0129FC001112483608093AF
:100EF0006E02812F0E94F91380C081E02F830E942F
:100F0000E0132F81223008F478C082E00E94E013C1
:100F100074C0002339F0222309F4BBCF812F0E9433
:100F2000581F6BC0222309F4B9CF193349F43FEF9E
:100F300087EE93E0315080409040E1F700C0000020
:100F4000812F0E94E91E59C0323FB1F028F4303F92
:100F500049F0313FF9F028C0343FB9F058F0353F3F
:100F600071F022C0002309F456C09091ED0281E097
:100F7000892708C081E008270093ED024CC00111C9
:100F80004AC081E08093ED0246C0011144C0109236
:100F9000ED0241C0002329F08091EC02882329F35F
:100FA00029C0222311F337C08091EC022223C1F023
:100FB000882341F09091ED0281E089278093ED0232
:100FC0001092EC02812F002319F00E94581F23C0B9
:100FD0000E94E91E86E0F60111928A95E9F71BC08E
:100FE0008823C9F0011117C09091ED0281E0892793
:100FF0008093ED021092EC020EC0F8E0AF16B1043F
:1010000041F04CF01AE0A11AB10822E0A216B10496
:1010100010F40E94CB0AEE2009F4DDC080916E022C
:1010200080FDD9C0F60112828595859585950E942F
:10103000F913C6010E948E0280916E0285958595F6
:10104000859528960FB6F894DEBF0FBECDBFDF9111
:10105000CF911F910F91FF90EF90DF90CF90BF90B5
:10106000AF909F908F900C94BB13F60182818823E0
:1010700009F4B1C08091DC0281608093DC02ABC0D6
:1010800006311C4509F095CC90917C02F6018281D5
:10109000882381F09A7A81E009F480E08093BD0191
:1010A000811102C069E201C065E38BED91E00E940D
:1010B000C5110BC08091BD01811102C069E201C060
:1010C00065E38BED91E00E949A1128960FB6F89493
:1010D000DEBF0FBECDBFDF91CF911F910F91FF906B
:1010E000EF90DF90CF90BF90AF909F908F900C9437
:1010F0005512F6018281882309F46DC01092EB022B
:101100006AC08091C0019091C1010E942511883C64
:10111000910508F030CC87E20E94581F87E20E94B8
:10112000E91E29CC093D1C4509F043CCF60182811A
:101130008111F6CB8091C30181111DCC8091C0013A
:101140009091C1010E942511883C910508F013CCB3
:1011500080E20E94D41E88E20E94581F88E22896EE
:101160000FB6F894DEBF0FBECDBFDF91CF911F91B8
:101170000F91FF90EF90DF90CF90BF90AF909F9036
:101180008F900C94E91E0D3DECE51E0741F4F6012D
:101190008281882301F182E08093EB021CC00E3D26
:1011A0001C4509F006CCF60182818823A1F028961F
:1011B0000FB6F894DEBF0FBECDBFDF91CF911F9168
:1011C0000F91FF90EF90DF90CF90BF90AF909F90E6
:1011D0008F900C94FD1128960FB6F894DEBF0FBEC9
:1011E000CDBFDF91CF911F910F91FF90EF90DF90D6
:1011F000CF90BF90AF909F908F9008959091BF0235
:1012000092FF0DC0282F2871283019F4877F846041
:1012100006C0282F2471243011F48B7F886093FF3F
:101220000DC0282F2871283119F4877E846106C0EB
:10123000282F2471243111F48B7E886194FD877EE0
:101240000895CF93E82F873058F58091070190914A
:101250000801892B09F042C0CE2F80E40E9455146A
:101260009093080180930701892BB1F482E10E94D9
:101270002E149093080180930701892B69F481E073
:1012800090E001C0880FCA95EAF780950E942E145D
:10129000909308018093070184E98093BC001EC0ED
:1012A00090E0FC013797E730F105C0F4E757FF4FB6
:1012B0000C94DC20209A289811C0219A29980EC0FD
:1012C000229A2A980BC0239A2B9808C0529A5A98AF
:1012D00005C0539A5B9802C03E9A4698CF910895F4
:1012E000CF93DF93873008F047C08091070190913A
:1012F0000801892B09F049C080E40E94551490939D
:10130000080180930701892B11F080E031C083E14F
:101310000E942E149093080180930701892BA9F74E
:1013200081E40E9455149093080180930701892B52
:1013300061F784E88093BC000E944F11EC0190910A
:10134000BC0097FD0EC00E944F118C1B9D0B843674
:101350009105A8F38EEF9FEF90930801809307010A
:10136000D4CF8091BB0080951092080110920701A4
:1013700094E99093BC000AC09FB18FB1807F86959D
:1013800086959370892B809501C080E0DF91CF9185
:101390000895EF92FF920F931F93CF93DF93CDB7F2
:1013A000DEB767970FB6F894DEBF0FBECDBF4B8B8D
:1013B0005C8B6D8B7E8B8F8B0E891F8901151105C0
:1013C000C1F15F3F11F44F3FA1F1E42EF12CA1E0F8
:1013D000B0E0042E01C0AA0F0A94EAF7852F90E02E
:1013E000662319F02091ED0206C09C0123533E4F65
:1013F000F90120812A232223A9F046E0489F900189
:10140000499F300D1124F701E20FF31FEE0FFF1F6C
:10141000ED5EFE4F40815181FC01E353FE4F908110
:10142000A92B06C0FC01E353FE4FA0958081A823A1
:10143000A08386E0FE013D96DF01982F1D929A95CC
:10144000E9F74D875E876F87198B088BDE0117964A
:1014500001900D928A95E1F7CE0107960E94DC1C5F
:10146000811137C086E0FE013796DE0111960190AA
:101470000D928A95E1F7FF81E8856A857B85611584
:10148000710539F1EF3F11F4FF3F19F1209101028D
:1014900030E0C9010196877099274091320250E0EF
:1014A0008417950779F1F983EA837D836C8396E04D
:1014B000929FD001939FB00D1124AE5FBD4FFE01EE
:1014C000319601900D929A95E1F7809301020E9466
:1014D000241416E08091320290910102891711F1D3
:1014E000189FC00111248E5F9D4F0E94DC1C882331
:1014F000C9F08091320290E001968770992780931D
:101500003202E8CF10927C020E94C11E10920102AA
:1015100010923202EBEFF1E086E0DF011D928A9536
:10152000E9F7D7CF67960FB6F894DEBF0FBECDBFF1
:10153000DF91CF911F910F91FF90EF90089520912F
:10154000CB013091CC018217930771F09093CC01BD
:101550008093CB01E091C102F091C202309721F05B
:101560000084F185E02D099408952091C9013091FE
:10157000CA018217930771F09093CA018093C90141
:10158000E091C102F091C202309721F00680F7810C
:10159000E02D09940895E091C102F091C2023097C4
:1015A00021F00190F081E02D099480E00895609190
:1015B000AD028CE090E00C948020CF93DF9326E086
:1015C000729FF001112434E5839FE00DF11D112479
:1015D000E60FF11DEE0FFF1FE25AFE4FC591D491A9
:1015E000CE01C238D10549F1B0F4C133D10509F4B7
:1015F00064C048F4C932D10509F458C0CA32D105D3
:1016000009F462C068C0C533D10509F448C0C933C4
:10161000D10599F060C0C33ED10541F138F4C03E18
:10162000D10591F0C23ED105B1F055C0C63ED105FD
:1016300021F1C73ED10561F14EC02091BF0220FDCE
:1016400014C221FD12C213C22091BF0220FF0FC29B
:1016500089E390E00CC22091BF0222FF08C2809172
:10166000BF0284FDB4C183EE90E001C28091BF024D
:1016700082FFF5CF82EE90E0FAC12091BF0223FFF6
:10168000F6C18091BF0284FDA2C187EE90E0EFC158
:101690008091BF0283FFF5CF86EE90E0E8C12091F4
:1016A000BF0225FFE4C189E290E0E1C12091BF02C1
:1016B00025FFDDC185E390E0DAC12091BF0226FF5E
:1016C000D6C18AE290E0D3C12091BF0226FFCFC1EC
:1016D00081E390E0CCC1C11520E5D20708F047C0F6
:1016E000C11530E4D30708F034C1C83ED10518F560
:1016F000C03ED10508F0BBC1C83AD10570F4C53A67
:10170000D10508F0B0C0C130D10509F4B0C108F46A
:101710005EC1249708F45BC1AAC1CF3BD10508F490
:10172000ADC0C03CD10508F452C1FE01EE0FFF1F51
:10173000EA52FE4F02C1C11520E2D20760F4C11582
:1017400031E0D30708F093C1C03FD10508F43FC191
:10175000CE0190658CC1C11580E3D80708F0F0C0B8
:10176000FE01FF70EE0FFF1FEA5AFC4FE6C0C115E5
:1017700095E5D90708F044C0C11524E5D20708F063
:1017800000C1C11532E5D30710F5C11581E5D807B1
:1017900008F0E3C02C2F237081E090E002C0880F96
:1017A000991F2A95E2F79C689E0174E0369527956B
:1017B0007A95E1F72370922BEC2FEF70E695E69582
:1017C00030E2E39FF00111248E2B9F2B50C18C2F10
:1017D00086958695AE0143705527C115D34508F00F
:1017E000C1C090E2899F9001112481E090E002C085
:1017F000880F991F4A95E2F7822B932B9C6837C17B
:10180000C1152AE5D207A0F4C11539E5D30708F0C0
:10181000C6C0C11586E5D80708F4B8C0C11598E55B
:10182000D90708F4D4C09C2F8827806F906A1FC105
:10183000C1152BE5D20708F4CAC0CE01C1153CE59D
:10184000D30708F4C1C090568115904208F0BFC07C
:101850008D2F8F710E94FE08FE01FF27F0628F71AD
:101860009F01382BAFC0C53AD10509F4B3C0C63AC1
:10187000D10509F0B2C082E890E4F9C0C83AD105B8
:1018800009F4AEC0C93AD10509F4ADC0CA3AD105D0
:1018900009F4ACC0CB3AD10509F4ABC0CC3AD105C0
:1018A00009F4AAC0CB3BD10509F4A9C0CC3BD105B2
:1018B00009F4A8C0CD3AD10509F4A7C0C03BD105B1
:1018C00009F4A6C0CE3AD10509F4A5C0CF3AD10596
:1018D00009F4A4C0C13BD10509F4A3C0C23BD105A2
:1018E00009F4A2C0C33BD10509F4A1C0C43BD10592
:1018F00009F4A0C0C53BD10509F49FC0C63BD10582
:1019000009F49EC0C73BD10509F49DC0C83BD10571
:1019100009F49CC0C93BD10509F49BC0CD3BD1055E
:1019200009F49AC0CE3BD10509F499C0CA3BD10550
:1019300009F498C080E094E49AC08591949197C08E
:101940009E013327C901D3FF02C0986C90C0906CF0
:101950008EC0CE019F70906A8AC09C2F8827816FAD
:10196000906A85C090E2899F9001112481E090E007
:1019700002C0880F991F4A95E2F7822B932B9A6831
:1019800076C09C2F8827846F906A71C08C2F0E942C
:10199000FE088F7190E0982F8827906268C08C2F86
:1019A0008F700E94FE08FE0194E0F695E7959A95E7
:1019B000E1F7EF70F0E0FE2FEE27F06A8F70806E97
:1019C0009F01282BC90153C09927906650C080E021
:1019D00090E04DC081E890E44AC083E890E447C0BD
:1019E00082EE94E444C089EE94E441C08AEE94E42B
:1019F0003EC085EB94E43BC086EB94E438C083EBB7
:101A000094E435C084EB94E432C087EB94E42FC0B7
:101A10008CEC94E42CC08DEC94E429C083E895E42C
:101A200026C08AE895E423C082E995E420C084E9D1
:101A300095E41DC081E296E41AC083E296E417C0E3
:101A400084E296E414C085E296E411C086E296E44E
:101A50000EC087E296E40BC08FE694E408C080E7EE
:101A600094E405C08AE296E402C080EE90E0DF9143
:101A7000CF91089580E290E0909308018093070150
:101A80008091C801811111C01092B9008CE080933F
:101A9000B80081E08093C8012FEF83ED90E32150DF
:101AA00080409040E1F700C0000080E40E9455149F
:101AB0009093080180930701892B09F040C080E0D2
:101AC0000E942E149093080180930701892BB9F589
:101AD00080E00E942E149093080180930701892BC7
:101AE00071F58FE30E942E149093080180930701F3
:101AF000892B29F584E98093BC0080E40E94551469
:101B00009093080180930701892BC9F48CE00E940F
:101B10002E149093080180930701892B81F480E0B3
:101B20000E942E149093080180930701892B39F4A9
:101B30008FE30E942E14909308018093070184E99B
:101B40008093BC0080910701089556985E9825986F
:101B50002D9826982E9827982F988FEF90E09093A5
:101B600089008093880090938B0080938A009093E3
:101B70008D0080938C00259A2D9A2FEF80E792E0BC
:101B8000215080409040E1F700C00000269A2E9A34
:101B90002FEF80E792E0215080409040E1F700C0B5
:101BA0000000279A2F9A2FEF80E792E02150804083
:101BB0009040E1F700C0000025982D982FEF80E7B6
:101BC00092E0215080409040E1F700C0000026984C
:101BD0002E982FEF80E792E0215080409040E1F76F
:101BE00000C0000027982F9856985E9825982D9849
:101BF00026982E9827982F98089584B1807F84B9CD
:101C000085B1807F85B98AB1837F8AB98BB1837FA3
:101C10008BB93E984698089580B38C7080BB81B391
:101C2000836F81BB0895AF92BF92CF92DF92EF9204
:101C3000FF920F931F93CF93DF93809107019091B1
:101C40000801892B91F08091C7018F5F8093C701B4
:101C500081110BC00E943A0D90E09093080180938F
:101C60000701892B11F40E94A50D01EB12E048EB4E
:101C7000E42E42E0F42E6801C0E0B12C37E0A32E40
:101C8000AC0E8C2F0E9421098A2D0E9421098C2FD5
:101C90000E947009D6019C91981719F08C93D1E09D
:101CA00001C0D0E08A2D0E947009F7019081981739
:101CB00019F0808381E001C080E0D82BBD2A0E940A
:101CC000FD0DCF5FFFEFCF1ADF0A6FEFE61AF60ABE
:101CD000C730A1F60E944F116AEF70E00E94B42055
:101CE000782F6091C601662381F11092C601E091C0
:101CF000AB02F091AC02DF01AC5ABF4FF12C2BEFDD
:101D0000E22ECAEFD0E0AF014A5F5F4F20812B3F48
:101D100099F0C22ED12C721720F09C012C193D098C
:101D200005C09E012C193D09280F391F25303105AA
:101D300014F0E08201C0F62E3196E417F50731F772
:101D4000EA17FB0701F7F092C601BB20A1F1409111
:101D5000AB025091AC026091C601E4ECF2E0EE24DB
:101D6000E394F12C9EE0D92EDE0ED8019D918D01D9
:101D700080819827DA0120E030E0E701022E01C0DF
:101D8000CC0F0A94EAF7CC2EC92241F0CC90DBEFBD
:101D9000BD2ECB1003C07C938C2761E011962F5F82
:101DA0003F4F2630310549F74A5F5F4F8193DE127E
:101DB000DCCF6093C60181E0DF91CF911F910F913D
:101DC000FF90EF90DF90CF90BF90AF9008958091FB
:101DD0007E020895CF93DF9300D01F92CDB7DEB778
:101DE0002091A102243031F523E029838058910904
:101DF0009B838A8382E08093E9008FEF9091E800D3
:101E0000815095FD06C095ED9A95F1F7000081117E
:101E1000F5CF8091E80085FF0DC040E050E063E021
:101E200070E0CE0101960E949F148091E8008E77A9
:101E30008093E8000F900F900F90DF91CF9108955D
:101E40000F931F93CF93DF9300D01F92CDB7DEB7D0
:101E50008C010E94331A823011F0843021F584E025
:101E600089831B830A8382E08093E9008FEF90913E
:101E7000E800815095FD06C095ED9A95F1F70000B8
:101E80008111F5CF8091E80085FF0DC040E050E062
:101E900063E070E0CE0101960E949F148091E800FB
:101EA0008E778093E8000F900F900F90DF91CF9185
:101EB0001F910F910895CF93DF93EC010E94331A85
:101EC000823011F08430F9F482E08093E9009FEFD2
:101ED0008091E800915085FD06C085ED8A95F1F767
:101EE00000009111F5CF8091E80085FF0CC040E023
:101EF00050E066E070E0CE010E949F148091E800FF
:101F00008E778093E800DF91CF910895CF93DF9390
:101F1000EC010E94331A823011F08430D9F580919F
:101F20000601882339F08091BF0287FF03C060E279
:101F300082E002C068E081E08093E9008FEF909139
:101F4000E800815095FD06C095ED9A95F1F70000E7
:101F50008111F5CF8091E80085FF1CC080910601BA
:101F6000811105C040E050E068E070E003C070E01F
:101F700040E050E0CE010E949F148091E8008E77EF
:101F80008093E80080E2FE01AFE7B2E001900D929D
:101F90008A95E1F7DF91CF910895803F39F48091E0
:101FA000D50287FF6CC01092D50269C0813F29F429
:101FB0008091D5021816BCF362C09091D402823F82
:101FC00029F497FF5CC01092D40259C0833F19F4E2
:101FD0001916CCF354C0893F41F48091D6021816EB
:101FE0000CF04DC01092D6024AC08A3F29F480916D
:101FF000D60287FF44C0F6CF8B3F39F48091D702D9
:1020000087FF3DC01092D7023AC08C3F29F48091DF
:10201000D7021816BCF333C0843F21F48091D30259
:102020008E7F17C0853F21F48091D3028D7F11C030
:10203000863F21F48091D3028B7F0BC0873F21F430
:102040008091D302877F05C0883F31F48091D3020D
:102050008F7E8093D30213C08D3F21F480917A024A
:102060008E7F0BC08E3F21F480917A028D7F05C058
:102070008F3F29F480917A028B7F80937A0280913E
:10208000D40281110EC08091D50281110AC08091C5
:10209000D602811106C08091D702811102C0109230
:1020A000D802089580917A0280FD16C081FD16C085
:1020B00082FD18C08091D802882391F0883290F474
:1020C00028E0829FC001112468E270E00E94C820CD
:1020D000862F672B29F007C082E0089584E00895D9
:1020E00081E0089588E0089580917A0280FD17C00C
:1020F00081FD17C082FD19C08091D802882399F014
:102100008C3398F423E2829FC00111246CE370E0C9
:102110000E94C820862F672B49F481E0089588E04B
:10212000089581E1089585E0089583E20895803F50
:1021300021F40E947410819504C0813F29F40E940B
:1021400074108093D5020895823F21F40E94741088
:10215000819504C0833F29F40E9474108093D402B7
:102160000895893F19F40E94521005C08A3F31F446
:102170000E94521081958093D60208958B3F21F4DE
:102180000E945210819504C08C3F29F40E94521085
:102190008093D7020895843F21F48091D302816017
:1021A00017C0853F21F48091D302826011C0863F21
:1021B00021F48091D30284600BC0873F21F4809189
:1021C000D302886005C0883F31F48091D3028061DA
:1021D0008093D30208958D3F21F480917A0281602B
:1021E0000BC08E3F21F480917A02826005C08F3F40
:1021F00029F480917A02846080937A020895789419
:102200001F920F920FB60F9211248F939F93AF934B
:10221000BF938091760290917702A0917802B0915D
:1022200079020196A11DB11D8093760290937702E9
:10223000A0937802B0937902BF91AF919F918F9153
:102240000F900FBE0F901F901895CF92DF92EF92D4
:10225000FF920F931F932FB7F894409176025091FD
:10226000770260917802709179022FBF6A017B0139
:10227000EE24FF248C0120E030E0C016D106E206F7
:10228000F30610F4415051099A01281B390BC9017A
:102290001F910F91FF90EF90DF90CF9008952FB78F
:1022A000F8948091760290917702A0917802B09193
:1022B00079022FBF0895E091C102F091C2023097D8
:1022C00049F082E08093D2020480F581E02D82ED16
:1022D00092E009950E944F119093DA028093D902FF
:1022E00008951F920F920FB60F9211248F939F9310
:1022F000AF93BF938091C302811113C08091760286
:1023000090917702A0917802B09179024196A11D37
:10231000B11D8093760290937702A0937802B093D8
:102320007902BF91AF919F918F910F900FBE0F9047
:102330001F90189520910601222321F02091BF02C1
:1023400027FD04C0FC013296089619C0262F269559
:10235000269526952E31C0F4FC01E20FF11D677021
:1023600081E090E001C0880F6A95EAF7809592813C
:102370008923828308953196E817F90729F020818F
:102380002613F9CF1082F7CF08952091060122235A
:1023900021F02091BF0227FD05C0FC0132962FEFEE
:1023A00030E019C0262F2695269526952E3120F54A
:1023B000FC01E20FF11D677081E090E001C0880F21
:1023C0006A95EAF79281892B828308952F3F39F02D
:1023D0003F5F363041F041914613F8CF0DC04111B7
:1023E000F7CF232FF5CF2F3F39F0FC01E20FF11D7E
:1023F00027FDFA956283089508956DEE7EEF80E0E3
:1024000090E00E949E2060E082E090E00E948020A8
:1024100060E083E090E00E948020109272021092AF
:102420007302109274021092750260E084E090E0F2
:102430000E94802060E085E090E00E94802060E0C3
:1024400086E090E00E9480206FEF87E090E00E949D
:10245000802040E050E0BA0188E090E00E949220A5
:1024600060E08DE090E00E94802040E050E0BA0102
:1024700088E190E00E94922060E087E190E00E9475
:10248000802040E050E0BA018FE090E00E9492206E
:1024900040E050E0BA0183E190E00C9492208091FA
:1024A00071028111109271020895909170028091D1
:1024B0007C02892B20916F02982F922B9093DB0145
:1024C000809171028823D9F0892B8093DB01809160
:1024D0000601882331F08091BF0287FF02C08EE1A0
:1024E00001C086E0EDEDF1E090E0815028F021910F
:1024F0002223D9F39F5FF9CF91110E944F12E091EF
:10250000C102F091C2023097A9F0809106018823A0
:1025100059F08091BF0287FF07C08091DB01809353
:10252000DC0185E08093DB010280F381E02D8BEDFF
:1025300091E009940895BF92CF92DF92EF92FF92BB
:102540000F931F93CF93DF938C01C0907202D090B2
:102550007302E0907402F090750280916A0290918B
:102560006B02A0916C02B0916D02C82AD92AEA2AA6
:10257000FB2ACFE1D0E0D701C6010C2E04C0B695EE
:10258000A795979587950A94D2F780FF07C0BC2E30
:10259000B8018C2F0E94DD0A019719F4219758F792
:1025A000B12C8B2DDF91CF911F910F91FF90EF9068
:1025B000DF90CF90BF900895CF93DF93EC010E94FE
:1025C0009B12BE010E94DD0ADF91CF910895292F51
:1025D000220F920F990F890F682F66956695669561
:1025E000982F977085E0689FB001112440E050E07B
:1025F00080E0FA01E60FF71FED5CFD4F208130E02F
:10260000092E02C0369527950A94E2F721703327E8
:10261000042E01C0220F0A94EAF7822B4F5F5F4F0E
:102620004530510531F70895292F220F920F990F48
:10263000890FA82FA695A695A695877051E001C091
:10264000550F8A95EAF785E0A89FD001112420E074
:1026500030E070E0F901EA0FFB1FED5CFD4F4081B7
:10266000CB01022E02C0969587950A94E2F78170FD
:102670009927819584278523842780832F5F3F4F67
:102680002530310539F708950F931F93AB01BC0135
:10269000CB01AA27BB270097A105B10511F0E0E106
:1026A00003C0DB01CA01E0E0092F1A2F2B2F3327CB
:1026B000011511052105310519F0E85FD901C8019F
:1026C0008C019D01F4E03695279517950795FA95AD
:1026D000D1F7011511052105310519F0EC5FD9017C
:1026E000C8018C019D01F2E0369527951795079555
:1026F000FA95D1F7011511052105310519F0EE5FA5
:10270000D901C801B695A79597958795892B8A2BEE
:102710008B2B09F0EF5F56985E9825982D98269898
:102720002E9827982F988E2F90E0FC013197E73054
:10273000F105A8F4E057FF4F0C94DC20259A2D9A60
:102740000EC0259A2D9A269A2E9A09C0259A2D9A5E
:1027500004C0259A2D9A269A2E9A279A2F9A40934A
:102760006A0250936B0260936C0270936D021F912A
:102770000F910C94A61E0F931F9341E050E060E070
:1027800070E004C0440F551F661F771F8A95D2F76B
:10279000409550956095709580916A0290916B027A
:1027A000A0916C02B0916D028A019B01082319234C
:1027B0002A233B23C901B8011F910F910C944413A4
:1027C00020916E028095822380936E02982F9770DD
:1027D00079F430E0482F082E000C550B24173507EC
:1027E00039F08595859585950E94BB1310926E02F0
:1027F00008950F931F9341E050E060E070E004C043
:10280000440F551F661F771F8A95D2F780916A0281
:1028100090916B02A0916C02B0916D028A019B01B4
:10282000082B192B2A2B3B2BC901B8011F910F91A3
:102830000C94441360937202709373028093740239
:10284000909375020C94A61E809132029091010221
:10285000891719F08F5F8770FBCF0895CF93DF93AF
:102860008093BB0084E88093BC000E944F11EC0170
:102870009091BC0097FD0AC00E944F118C1B9D0BCC
:1028800084369105A8F38EEF9FEF0CC02091B9001C
:10289000287F81E090E0283211F480E090E091956B
:1028A00081959109DF91CF9108950F931F93CF9355
:1028B000DF93C82F1092BC0084EA8093BC000E9472
:1028C0004F118C019091BC0097FD0AC00E944F11DE
:1028D000801B910B84369105A8F38EEF9FEF2AC0E1
:1028E0009091B900987F983041F09091B900987F0D
:1028F000903119F08FEF9FEF1DC0C093BB0084E8AB
:102900008093BC000E944F11EC019091BC0097FD98
:1029100008C00E944F118C1B9D0B84369105A8F3B3
:10292000DCCF8091B900887F883111F0803411F7B5
:1029300080E090E0DF91CF911F910F910895CF92A9
:10294000DF92FF920F931F93CF93DF931F92CDB728
:10295000DEB7F82E8B0199830E944A199981811163
:102960001CC0CF2CD92E01151105B1F08091E800C3
:1029700085FD0AC08091E8008E778093E8000E9470
:102980004A19882381F309C0F60181916F01809370
:10299000F10001501109E7CF80E00F90DF91CF9156
:1029A0001F910F91FF90DF90CF9008951F93CF93C9
:1029B000DF93CDB7DEB7AA970FB6F894DEBF0FBE90
:1029C000CDBFE3EAF2E088E08E0F9091F1009193A1
:1029D0008E13FBCF8091A402833009F460C030F4E1
:1029E000813071F0823009F49CC0B3C08A3009F4A0
:1029F00088C08B3009F46BC0893009F0AAC020C0B0
:102A00008091A302813A09F0A4C08091E800877FF9
:102A10008093E8008091A7029091A802892B21F46D
:102A200060E28FE792E003C060E080E090E070E059
:102A30000E94D0198091E8008B778093E80089C0CC
:102A40008091A302813209F084C08091A702909105
:102A5000A802029708F07DC08091E800877F8093EC
:102A6000E8008091E80082FD05C08091A1028111FB
:102A7000F8CF6FC02091F3008091F20090E0922B8C
:102A8000029729F48091F1008B7F813021F48091AD
:102A9000F10080937E028091E8008B7756C0809190
:102AA000A302813A09F055C08091A7029091A80233
:102AB000892B09F04EC08091E800877F8093E80061
:102AC0008091E80080FFFCCF8091060139C08091A1
:102AD000A3028132F1F58091A7029091A802892B7F
:102AE000C1F58091E800877F8093E8000E947C19FF
:102AF0008091A5028093060110927C020E94C11E63
:102B000028C08091A302813221F58091E800877F5F
:102B10008093E8000E947C198091A60280937D0238
:102B200018C08091A302813AA1F48091E800877FC8
:102B30008093E8008091E80080FFFCCF80917D02C7
:102B40008093F1008091E8008E778093E8000E94E6
:102B50007C198091E80083FFD6C18091A3029091F7
:102B6000A402492F50E04A30510508F0CCC1FA01C7
:102B7000E956FF4F0C94DC20803821F0823809F0B0
:102B8000C2C108C080919F029091A002992389F050
:102B900082600FC08091A7028F70873008F0B3C1A8
:102BA0008093E9008091EB0085FB882780F91092E3
:102BB000E9009091E800977F9093E8008093F100FE
:102BC0001092F10074C1282F2D7F09F09CC1882339
:102BD00019F0823061F097C18091A502813009F02F
:102BE00092C1933009F080E08093A0022EC08091C2
:102BF000A50281112AC08091A7028F702FEF280FA4
:102C0000263008F080C18093E9002091EB0020FF7E
:102C10001CC0933021F48091EB00806214C090912D
:102C2000EB0090619093EB0021E030E0A90102C03D
:102C3000440F551F8A95E2F74093EA001092EA008C
:102C40008091EB0088608093EB001092E900809106
:102C5000E800877F2FC1811156C11091A5021F770F
:102C60008091E3008078812B8093E3008091E800DD
:102C7000877F8093E8000E947C198091E80080FFA4
:102C8000FCCF8091E30080688093E300111102C0C3
:102C900082E001C083E08093A10235C18058823078
:102CA00008F031C18091A5029091A6028C3D53E0BD
:102CB000950779F583E08A838AE289834FB7F89490
:102CC000DE01139620E03EE051E2E32FF0E0509366
:102CD0005700E49120FF03C0E295EF703F5FEF7073
:102CE0008E2F90E0EA3010F0C79601C0C0968D9309
:102CF0009D932F5F243149F74FBF8091E800877F74
:102D00008093E8006AE270E0CE0101960E94D0193B
:102D1000BDC04091A7025091A802292F332723302C
:102D20003105B9F06CF42130310509F4FBC02230D3
:102D3000310509F0E8C08BE390E0E6E5F4E054C02B
:102D40002132310509F433C02232310509F43CC087
:102D5000DAC0992781309105D1F05CF4892B09F014
:102D6000D2C0E9EDF4E0E4918E2F90E0E9EDF4E0DB
:102D700038C08230910599F0039709F0C4C0E3EAA6
:102D8000F4E0E4918E2F90E0E3EAF4E02AC0E1EC75
:102D9000F4E0E4918E2F90E0E1ECF4E022C0E9EA67
:102DA000F4E0E4918E2F90E0E9EAF4E01AC04115D6
:102DB000510509F4BCC04130510509F0A4C089E0B7
:102DC00090E0E1E8F4E010C04115510509F4B4C009
:102DD0004130510509F097C080EC90E0E6E5F3E062
:102DE00003C0009709F48FC02091E800277F20934B
:102DF000E8002091A9023091AA022817390708F4A7
:102E0000C90140E0009789F12091A102222309F431
:102E10003DC02530D9F12091E80023FD37C0209135
:102E2000E80022FD2FC02091E80020FFEBCF409169
:102E3000F3002091F20030E0342B009759F0283055
:102E4000310540F444914093F100319601972F5F92
:102E50003F4FF3CF41E02830310509F040E02091A9
:102E6000E8002E772093E800CDCF4111CDCF0AC0E6
:102E70008091A102882351F0853041F08091E800D3
:102E800083FD04C08091E80082FFF2CF8091E800CA
:102E90008B778093E80037C08038A9F58091E800EF
:102EA000877F8093E8008091A2028093F100809157
:102EB000E8008E778093E8000E947C1924C081117D
:102EC00022C01091A5021230F0F48091E800877FB3
:102ED0008093E8001093A2020E947C19111106C091
:102EE0008091E30087FD02C081E001C084E080930F
:102EF000A10242E061EC81E00E949B1942E261EC98
:102F000082E00E949B198091E80083FF1AC08091A3
:102F1000E800877F8093E8008091EB0080628093D7
:102F2000EB000FC082E190E0E1E9F4E05DCF89E0E1
:102F300090E0E8E6F4E058CF80E490E0E6E1F4E0E9
:102F400053CFAA960FB6F894DEBF0FBECDBFDF9168
:102F5000CF911F9108951F920F920FB60F921124D7
:102F60002F933F934F935F936F937F938F939F9391
:102F7000AF93BF93CF93DF93EF93FF93C091E9009B
:102F8000CF708091EC00D82FD17080FDD0E81092E6
:102F9000E9008091F000877F8093F00078940E9490
:102FA000D6141092E9008091F00088608093F000C0
:102FB000CD2BCF70C093E900FF91EF91DF91CF91BE
:102FC000BF91AF919F918F917F916F915F914F9141
:102FD0003F912F910F900FBE0F901F901895E8ED25
:102FE000F0E080818E7F80831092E2001092DA0000
:102FF0001092E100A0EEB0E08C9181608C93808112
:103000008F77808319BCA7EDB0E08C918E7F8C9375
:1030100080818F7E808310927B020895CF92DF9211
:10302000EF92FF920F931F93CF93DF93C8EDD0E001
:1030300088818F7E8883E7EDF0E0808181608083E6
:1030400084E082BF81E080937B0288818E7F8883C9
:1030500002EE10E0F80110821092DA0081EEC82E24
:10306000D12CF601108288818F77888388818068CF
:10307000888388818F7D888319BC1092A102109269
:10308000A2021092A00210929F0290EEE92EF12C63
:10309000F70180818B7F808388818160888342E013
:1030A00060E080E00E949B19F60180818E7F808322
:1030B000F801808181608083808188608083F7014E
:1030C00080818E7F8083888180618883DF91CF912A
:1030D0001F910F91FF90EF90DF90CF9008951F9276
:1030E0000F920FB60F9211242F933F934F935F933C
:1030F0006F937F938F939F93AF93BF93EF93FF93C0
:103100008091E10082FF09C08091E20082FF05C04A
:103110008091E1008B7F8093E1008091DA0080FF55
:103120002AC08091D80080FF26C08091DA008E7F6F
:103130008093DA008091D90080FF18C080E189BDBA
:1031400082E189BD09B400FEFDCF81E08093A10238
:1031500080917B0281110FC00E94EF170E940E1810
:103160008091E20084608093E20005C019BC109257
:10317000A10210927B028091E10080FF17C0809134
:10318000E20080FF13C08091E2008E7F8093E20016
:103190008091E20080618093E2008091D80080629B
:1031A0008093D80019BC85E08093A1028091E10052
:1031B00084FF34C08091E20084FF30C080E189BD8B
:1031C00082E189BD09B400FEFDCF8091D8008F7DDA
:1031D0008093D8008091E1008F7E8093E100809100
:1031E000E2008F7E8093E2008091E2008160809314
:1031F000E2008091A202882311F084E007C0809150
:10320000E30087FD02C081E001C083E08093A1025A
:1032100010927C020E94C11E0E94CB0A8091E100A4
:1032200083FF27C08091E20083FF23C08091E100EB
:10323000877F8093E10082E08093A1021092A20236
:103240008091E1008E7F8093E1008091E2008E7F8B
:103250008093E2008091E20080618093E20042E08E
:1032600060E080E00E949B198091F000886080936C
:10327000F000FF91EF91BF91AF919F918F917F915E
:103280006F915F914F913F912F910F900FBE0F90D3
:103290001F9018952091E4003091E50095E640914B
:1032A000EC00842F817040FF22C08091E80080FDF7
:1032B0001CC08091A102882391F0853091F080910B
:1032C000EB0085FD10C04091E4005091E5004217ED
:1032D000530729F39A01915011F784E0089582E091
:1032E000089583E0089581E0089580E00895409175
:1032F000E80042FFDECF08958091A30287FF11C04E
:103300008091E80082FD05C08091A1028111F8CF73
:1033100011C08091E8008B770BC08091A1028823B7
:1033200049F08091E80080FFF8CF8091E8008E7727
:103330008093E8000895982F973058F59093E9000E
:10334000981739F07091EC002091ED005091F00049
:1033500003C0242F762F50E021FF19C03091EB00DD
:103360003E7F3093EB003091ED003D7F3093ED00D8
:103370003091EB0031603093EB007093EC002093C0
:10338000ED005093F0002091EE0027FF07C09F5FF3
:10339000D3CF8F708093E90081E0089580E0089595
:1033A0002091A9023091AA022617370748F061152B
:1033B000710539F42091E8002E772093E80001C0D0
:1033C000B90140E061157105A9F12091A102222304
:1033D00009F443C0253009F442C02091E80023FDE0
:1033E00040C02091E80022FD32C02091E80020FF7B
:1033F000E9CF4091F3002091F20030E0342BFC0142
:10340000CF016115710559F02830310540F48191E3
:103410008093F100615071092F5F3F4FF1CF41E080
:103420002830310509F040E02091E8002E77209304
:10343000E800C8CF4111C9CF0AC08091A1028823FA
:1034400061F0853061F08091E80083FD0AC08091D1
:10345000E80082FFF2CF80E0089582E0089583E0E3
:10346000089581E008958091EB02811107C0809159
:10347000A102843011F081E0089582E00895CF9395
:10348000DF93CDB7DEB72A970FB6F894DEBF0FBE35
:10349000CDBF84B7877F84BF0FB6F894A89580917D
:1034A0006000886180936000109260000FBE80E829
:1034B000809361001092610085B7806885BF85B7F1
:1034C000806885BF0E94EF170E940E188091E2006D
:1034D00084608093E20078948091A1028823A1F017
:1034E0001091E9001F709091EC00892F817090FD80
:1034F00080E8182B1092E9008091E80083FD0E947B
:10350000D6141F701093E90082E084BD93E095BD4E
:103510009AEF97BD80936E000E943A0D90E09093D1
:103520000801809307010E94FD0D0E940C0EA1EB83
:10353000B2E0E4ECF2E05EE0F52EFE0E11921D9298
:10354000FE12FCCF84E590E00E94E220AC01909353
:10355000AC028093AB0220E030E08BEFFA01E20F87
:10356000F31F96E081939150E9F72A5F3F4F24358E
:103570003105A1F780E090E00E947A208D3E9E4FB9
:1035800011F00E94FD118CE090E00E94722090E00A
:10359000A0E0B0E08093AD029093AE02A093AF02A2
:1035A000B093B00289EA8093800089E08093810023
:1035B00024982C983F988AB18F7C8AB96E98479A44
:1035C0008BB180638BB9769A0E94A50D80E090E064
:1035D0000E947A208D3E9E4F11F00E94FD1182E0E4
:1035E00090E00E9472208093DC0284E090E00E94D0
:1035F000722090E09093C0028093BF0283E090E03D
:103600000E947220682F70E080E090E00E941A14FF
:1036100089E091E09093C2028093C102EE24EA9483
:10362000CC24C394D12C90E1592E22E1622E38E1B2
:10363000A32EB12C40E4742E8091A102853009F0B4
:1036400043C08091A102843009F11092C3020FB6E9
:10365000F894A895A09260000FBE7092600083B7A6
:10366000817F846083BF83B7816083BF78948895AE
:1036700083B78E7F83BF0FB6F894A89580916000C2
:10368000886180936000109260000FBE8091A0025C
:10369000882391F20E943A0D90E090930801809364
:1036A00007010E94FD0D0E940C0EE4ECF2E0119265
:1036B000FE12FDCF0E94130EE4ECF2E08191811125
:1036C000E1C0FE12FBCFB8CF0E94130EEDEDF2E089
:1036D000A4ECB2E000E010E0702F6D91219126275C
:1036E000B1F180E090E030E0982EA901082E02C0F0
:1036F000559547950A94E2F740FF25C089837A8360
:10370000C60102C0880F991F9A94E2F74C01862FD8
:1037100090E08821992121E0892B09F420E02B8376
:103720000E944F118160782F9D838C8349815A813B
:103730006B818D810E94C909F801E352FD4F8081A0
:103740008826808219C001968630910569F60F5F40
:103750001F4F0E30110509F0BFCFEE82EF821886A1
:103760000E944F118160782F9A8789874E815F81EF
:1037700068858A850E94C9098091D9029091DA02F0
:103780000E9425119C019091D802992321F02431A7
:10379000310508F46BC08091D4021091D5028111DB
:1037A0000BC0111183C02091D60221117FC020913E
:1037B000D70221117BC05AC09F3F19F09F5F9093A1
:1037C000D802181624F40E9474108093D4028091B9
:1037D000D40287FF05C00E94741081958093D402A3
:1037E000111624F40E9474108093D5028091D502A2
:1037F00087FF05C00E94741081958093D502309197
:10380000D402332379F02091D502222359F045EBDD
:103810003403C00111249093D4022403C001112465
:103820009093D5028091D602181624F40E9452106B
:103830008093D6028091D60287FF05C00E94521065
:1038400081958093D6028091D702181624F40E94A5
:1038500052108093D7028091D70287FF05C00E9443
:10386000521081958093D7020E945B111091DB0268
:103870000E94CB0A181709F4DFCE0E94CB0A80936E
:10388000DB02DACE59BC69BC09B400FEFDCF8091E1
:10389000D8008F7D8093D8008091E0008260809373
:1038A000E0008091E00081FDFCCFC6CE9F3F09F093
:1038B00085CF8DCF8091000282958F7009F054C022
:1038C0008091FD01882309F44FC080913202A091BC
:1038D00001026091FB017091FC014091FE01509149
:1038E000FF01B6E08A1709F43FC090E04115510589
:1038F000C1F17F3F11F46F3FA1F1B89FF001B99F73
:10390000F00D1124EE5FFD4F218172132AC020813A
:10391000621327C02281211124C0238134812417FE
:10392000350710F421503109241B350B283C310593
:10393000C0F4209100022F7020612093000226E045
:10394000289FF001299FF00D1124E95FFD4F808130
:103950008F70806180838BEF91E00E948E020C94C7
:10396000241401968770BECF08950E94DC12292F7F
:103970002F7092959F70E92FF0E03297EE30F105AD
:10398000B8F4EF55FF4F0C94DC20803F99F018F409
:10399000803E70F40FC0843F59F40CC0803E50F05C
:1039A000813F31F407C0822F8695869586950895CC
:1039B00080E0089581E00895BF92CF92DF92EF9268
:1039C000FF920F931F93CF93DF93CDB7DEB761972D
:1039D0000FB6F894DEBF0FBECDBF8C0185E0F801B5
:1039E000DE011D9601900D928A95E1F7D8013C9178
:1039F00011962C9111971296EC9012971396CD90E8
:103A0000DC9014975091FB016091FC018091FE01C4
:103A10009091FF01009709F44FC16F3F19F45F3F88
:103A200009F44AC1B090FD01BB2009F4ECC04091FB
:103A30000002C816D90628F0F601E81BF90BCF01E1
:103A400004C0809590958C0D9D1DFF24F394883CB7
:103A5000910548F0F12C407F09F09FC08BEF91E079
:103A60000E948E0221C1842F807F09F044C062131E
:103A700012C0531310C0E1100EC04F70406140934C
:103A800000028BEF91E00E948E0280910002D8012B
:103A900015968C932EC0CD2819F12F3F11F43F3F7E
:103AA000F9F0FE2CE1101CC080913202409101021D
:103AB00056E0841709F458C090E0589FF001599FD0
:103AC000F00D1124EE5FFD4F6181261306C0608169
:103AD000361303C06281611103C001968770E9CF7C
:103AE000FE2CEE2009F421C18091000281608093B8
:103AF0000002F12C1AC162130AC0531308C0E1106E
:103B000006C080910002D80115968C93B0C03D8705
:103B10002E878D859E850E94B51C8823D1F1EE20CD
:103B2000C1F120910002822F82958F7090E0029760
:103B300074F08091FB019091FC0198878F83198626
:103B4000DB86CA862C87CE0107960E948E0286E00D
:103B5000F801ABEFB1E001900D928A95E1F70E9478
:103B60005A1CFF24F394E1C03D872E878D859E85E6
:103B70000E94DC12292F22952F7030E0223031056F
:103B80000CF0C7C09F7009F0C1C0805E883008F497
:103B9000CCC0C8010E948E02E4CF621314C053133C
:103BA00012C0E11010C080910002F8018583C801A5
:103BB0000E948E0286E0EBEFF1E0DF011D928A9514
:103BC000E9F7FB2CB2C03D872E878D859E850E942C
:103BD000B51C8823F1F2EE20E1F220910002822F41
:103BE00082958F7090E002970CF4B1CF8091FB0129
:103BF0009091FC019A8389831B82DD82CC822E8383
:103C0000CE010196A2CFC816D90638F0C81AD90A33
:103C1000B8ECCB16D10450F007C0809590958C0D70
:103C20009D1D883C910510F0F12C3EC0FE2CEE202D
:103C300009F4AFCF621327C0531325C020910002AF
:103C400020FD18C0822F82958F70482F50E04115BB
:103C5000510581F0F80125834F30510541F08F5F08
:103C6000982F9295907F822F8F70892B8583C80122
:103C70000E948E0286E0F801ABEFB1E001900D9258
:103C80008A95E1F752C03D872E878D859E850E94DB
:103C9000B51C81115CCF809100028160809300028D
:103CA000C8010E948E0241C0EBEFF1E086E0DF0127
:103CB0001D928A95E9F739C0EE2009F46ACF3D8755
:103CC0002E878D859E850E94B51CF82E882309F4C9
:103CD00060CF86E0F801ABEFB1E001900D928A95DC
:103CE000E1F78091FB019091FC010E94DC1292951A
:103CF0009F70963041F48091ED0291E08927809386
:103D0000ED029093EC020E945A1C0FC081113DCF2E
:103D10000CC0243031050CF03CCF9F7009F435CF36
:103D2000F8019581907F09F030CF8F2D61960FB605
:103D3000F894DEBF0FBECDBFDF91CF911F910F91E1
:103D4000FF90EF90DF90CF90BF9008951092700297
:103D500010926F020E945512E2EDF2E086E0DF0160
:103D60001D928A95E9F71092D80210927A020E9469
:103D70005B1180E090E00E94B50A80E090E00C9436
:103D80009F0A80910601882331F08091BF0287FF4E
:103D900002C08EE101C086E0EDEDF1E0DF011D9291
:103DA0008A95E9F70C94A61E882341F0809590919E
:103DB0007C02892380937C020C94551208958823F9
:103DC00039F090917C02892B80937C020C945512DF
:103DD0000895882309F463C0823869F40E94CB0AED
:103DE00081FF5DC069E38BED91E00E94C5110E94E7
:103DF000551269E30EC0833891F40E94CB0A80FF0C
:103E00004EC063E58BED91E00E94C5110E945512F2
:103E100063E58BED91E00E949A110C945512843861
:103E200069F40E94CB0A82FF3AC067E48BED91E00F
:103E30000E94C5110E94551267E4EBCF9CEF980FCA
:103E4000913A10F4682FE5CF90E2980F983088F4FB
:103E5000877021E030E0A90102C0440F551F8A9508
:103E6000E2F7CA01809590917C02892380937C02BD
:103E7000D4CF9BE5980F933020F480E090E00C9431
:103E8000B50A98E5980F973120F480E090E00C9403
:103E90009F0A803F20F00E94CD0F0C945B11089583
:103EA000CF93C82F0E94581F8C2FCF910C94E91EDE
:103EB000882309F416C18238B1F40E94CB0A81FD2F
:103EC00010C169E38BED91E00E94C5110E9455126B
:103ED0002FEF41EE54E0215040405040E1F700C048
:103EE000000069E317C08338D9F40E94CB0A80FD33
:103EF000F8C063E58BED91E00E94C5110E94551258
:103F00008FEF91EE24E0815090402040E1F700C017
:103F1000000063E58BED91E00E949A110C9455121C
:103F20008438B1F40E94CB0A82FDDBC067E48BEDDC
:103F300091E00E94C5110E9455124FEF51EE84E0AE
:103F4000415050408040E1F700C0000067E4E2CFFC
:103F50009CEF980F913A30F4682F8BED91E00E941E
:103F6000C511DCCF90E2980F983080F4877021E083
:103F700030E0A90102C0440F551F8A95E2F7CA013B
:103F800090917C02892B80937C02C8CF9BE5980F8F
:103F9000933070F4853A29F0863A31F083E890E066
:103FA00005C081E890E002C082E890E00C94B50A78
:103FB00098E5980F973108F08EC0883A09F445C00B
:103FC000893A09F445C08A3A09F445C08B3A09F4A4
:103FD00045C08C3A09F445C08B3B09F445C08C3B85
:103FE00009F445C08D3A09F445C0803B09F445C049
:103FF0008E3A09F445C08F3A09F445C0813B09F473
:1040000045C0823B09F445C0833B09F445C0843B6D
:1040100009F445C0853B09F445C0863B09F445C019
:10402000873B09F445C0883B09F445C0893B09F446
:1040300045C08D3B09F445C08E3B09F445C08A3B21
:1040400009F445C080E090E044C082EE90E041C0B9
:1040500089EE90E03EC08AEE90E03BC085EB90E0B8
:1040600038C086EB90E035C083EB90E032C084EB43
:1040700090E02FC087EB90E02CC08CEC90E029C042
:104080008DEC90E026C083E891E023C08AE891E0BF
:1040900020C082E991E01DC084E991E01AC081E26C
:1040A00092E017C083E292E014C084E292E011C073
:1040B00085E292E00EC086E292E00BC087E292E0D9
:1040C00008C08FE690E005C080E790E002C08AE279
:1040D00092E00C949F0A803F20F00E9497100C946D
:1040E0005B110895F999FECF92BD81BDF89A992789
:1040F00080B50895A8E1B0E042E050E00C94A6201D
:10410000262FF999FECF92BD81BDF89A019700B490
:10411000021639F01FBA20BD0FB6F894FA9AF99A30
:104120000FBE08950396272F0E9481200E948020B1
:10413000252F0E948120242F0C9481200196272F67
:104140000E9481200C948020DC01CB01FC01F999B4
:10415000FECF06C0F2BDE1BDF89A319600B40D92D3
:1041600041505040B8F70895AA1BBB1B51E107C04E
:10417000AA1FBB1FA617B70710F0A61BB70B881FF7
:10418000991F5A95A9F780959095BC01CD01089586
:1041900097FB072E16F4009407D077FD09D00E94F4
:1041A000B42007FC05D03EF4909581959F4F08956B
:1041B000709561957F4F0895EE0FFF1F0590F49164
:1041C000E02D0994CF93DF938230910510F482E0C3
:1041D00090E0E091F002F091F10220E030E0C0E0E8
:1041E000D0E0309711F14081518148175907C0F054
:1041F0004817590761F482819381209719F09B83B6
:104200008A832BC09093F1028093F00226C021157F
:10421000310519F04217530718F49A01BE01DF0166
:10422000EF010280F381E02DDCCF2115310509F18A
:10423000281B390B2430310590F412968D919C91F6
:1042400013976115710521F0FB019383828304C0EC
:104250009093F1028093F002FD01329644C0FD017B
:10426000E20FF31F81939193225031092D933C93D8
:104270003AC02091EE023091EF02232B41F42091BD
:104280000201309103013093EF022093EE0220915E
:104290000001309101012115310541F42DB73EB7E0
:1042A0004091040150910501241B350BE091EE0271
:1042B000F091EF02E217F307A0F42E1B3F0B281733
:1042C000390778F0AC014E5F5F4F2417350748F08F
:1042D0004E0F5F1F5093EF024093EE028193919334
:1042E00002C0E0E0F0E0CF01DF91CF9108950F939D
:1042F0001F93CF93DF93009709F48CC0FC01329792
:10430000138212820091F0021091F1020115110541
:1043100081F420813181820F931F2091EE02309130
:10432000EF022817390779F5F093EF02E093EE02D8
:1043300071C0D80140E050E0AE17BF0750F41296AC
:104340002D913C911397AD012115310509F1D9014A
:10435000F3CF9D01DA013383228360817181860F5F
:10436000971F8217930769F4EC0128813981260F82
:10437000371F2E5F3F4F318320838A819B81938338
:104380008283452B29F4F093F102E093F00242C0BE
:104390001396FC93EE931297ED01499159919E016A
:1043A000240F351FE217F30771F480819181840F88
:1043B000951F029611969C938E93828193811396FA
:1043C0009C938E931297E0E0F0E0D80112968D91C5
:1043D0009C911397009719F0F8018C01F6CF8D91FD
:1043E0009C9198012E5F3F4F820F931F2091EE0208
:1043F0003091EF022817390769F4309729F41092A9
:10440000F1021092F00202C0138212821093EF02A6
:104410000093EE02DF91CF911F910F910895F894D0
:02442000FFCFCC
:104422000000F2022000012000E70E860F5B0FEA77
:104432000E200F000D010D020D030D040D050D00E0
:104442000C010C020C030C040C050C000B010B02FA
:104452000B030B040B050B000A010A020A030A04F0
:104462000A050A00090109020903090409050900EC
:1044720008010802080308040805080007010702EA
:1044820007030704070507000601060206030604E0
:1044920006050600050105020503050405050500DC
:1044A20004010402040304040405040003010302DA
:1044B20003030304030503000201020202030204D0
:1044C20002050200010101020103010401050100CC
:0C44D200000100020003000400050000CF
:00000001FF
