:100000000C947D020C949A020C949A020C949A021D
:100010000C949A020C949A020C949A020C949A02F0
:100020000C949A020C949A020C94530C0C94E310C6
:100030000C944D1D0C949A020C949A020C949A0202
:100040000C949A020C949A020C949A020C949A02C0
:100050000C949A020C942A0D0C949A020C949A0215
:100060000C949A020C949A020C949A020C949A02A0
:100070000C949A020C949A020C949A020C949A0290
:100080000C949A020C949A020C949A020C949A0280
:100090000C949A020C949A020C949A020C949A0270
:1000A0000C949A020C949A020C949A02050109800D
:1000B000A101850319012AB700150126B700950192
:1000C00075108100C0050C0901A101850419012AE0
:1000D000A002150126A002950175108100C005013E
:1000E0000906A1018505050719E029E71500250185
:1000F0009508750181020507190029EF15002501F2
:1001000095F075018102050819012905950575010C
:100110009102950175039101C005010902A1010930
:1001200001A100050919012905150025019505758D
:10013000018102950175038101050109300931151D
:1001400081257F95027508810609381581257F95DF
:100150000175088106050C0A38021581257F950175
:1001600075088106C0C005010906A101050719E04F
:1001700029E715002501950875018102950175088B
:1001800081010507190029FF150026FF0095067556
:100190000881000508190129059505750191029549
:1001A0000175039101C03500290039000153025146
:1001B00000001E00140004611D00010006081F005D
:1001C0001A0016641B0001002B00200008000768BD
:1001D00006005000280021001500096219004F0098
:1001E0001908220017000A00050000002B04010076
:1001F000035300000F5500001B08010003530000CB
:100200000F550000010023001C000B00110000002E
:100210000100240018000D7210005200010025009A
:100220000C000E78360051002C00260012000F64DE
:10023000370001002A002700130033713800010045
:1002400001002D00310034000100025100000100C6
:100250000100010001000100000001000100010097
:100260000100010006010100010001000100010080
:100270000100010001000100010001000100010076
:10028000010001000100010019010100010001004D
:100290000100000001000100010000000100000059
:1002A0001B0101000100000001000000010001002D
:1002B0000100010001000000010001000100010037
:1002C0000100010001000100010001000100010026
:1002D0000100010001000100010001000100010016
:1002E0000100010001000100010001000100010006
:1002F00001000100000001000100010001000100F7
:1003000000003A001E0220022202010001003B0010
:100310001F0221022302010001003C002F022602DD
:100320002F00010001003D003002270230000100D3
:1003300001003E00310235003502000001000100DD
:1003400001000000010000000100010001000000A8
:100350000100000001003F00560057002E00000081
:1003600001004000240021001E0027000100410080
:10037000250022001F003700010042002600230054
:10038000200001000100430054005500010001005D
:100390000100010001000100010001000000010056
:1003A0000100010001000100000001000100010046
:1003B0000100010001000100010001000100010035
:1003C000010001000100F500FC00F2000100010045
:1003D0000100F400FB00F300010001000100010036
:1003E0000100000001000100010000000100000008
:1003F00001000100010000000100000001000100F7
:100400000100010001000000010001000100F400F2
:10041000FA00F000010001000100F500F900F10010
:1004200001000100010001000100010001000100C4
:1004300001000100010001000100010001000100B4
:1004400001000100000009025400030100A0FA09A4
:1004500004000001030101000921110100012240F3
:10046000000705810308000A0904010001030102D5
:1004700000092111010001224D0007058203080037
:100480000A09040200010300000009211101000112
:10049000226D000705830320000A120100020000FC
:1004A000000897327449010001020001160345005B
:1004B000720067006F0044006F0078002000450064
:1004C0005A00000030035A0053004100200054003D
:1004D0006500630068006E006F006C006F006700CD
:1004E000790020004C006100620073002000490088
:1004F0006E00630000000403090411241FBECFEF47
:10050000DAE0DEBFCDBF11E0A0E0B1E0E6EFFFE34F
:1005100002C005900D92A435B107D9F722E0A4E5F9
:10052000B1E001C01D92A937B207E1F70E94BB1AE2
:100530000C94CE1F0C940000E8EDF0E080818E7FDB
:1005400080831092E2001092DA001092E100A0EE97
:10055000B0E08C9181608C9380818F77808319BC0F
:10056000A7EDB0E08C918E7F8C9380818F7E80830D
:100570001092430208952091E4003091E50095E641
:10058000A9012091EC00822F817020FF06C080918C
:10059000E80080FF06C080E008952091E80022FD79
:1005A0001AC080916802882389F0853089F0809193
:1005B000EB0085FD0FC02091E4003091E50042176B
:1005C0005307F9F29150E1F684E0089582E008952E
:1005D00083E0089581E00895EF92FF920F931F93B7
:1005E000CF937C018B010E94BB02C82F811117C0E1
:1005F0008091E80085FD0BC08091E8008E778093A4
:10060000E8000E94BB02882399F3C82F08C0F701B5
:1006100081917F018093F1000150110949F78C2FDE
:10062000CF911F910F91FF90EF90089580916A02F2
:1006300087FF13C08091E80082FF06C08091E80028
:100640008B778093E80004C0809168028111F2CF1B
:100650000895809168028823D9F38091E80080FF93
:10066000F8CF8091E8008E77ECCF982F9093E90037
:10067000242F762F50E0891731F07091EC002091F3
:10068000ED005091F00021FD07C09F5F973071F79A
:100690008093E90081E008953091EB003E7F309334
:1006A000EB003091ED003D7F3093ED003091EB0099
:1006B00031603093EB007093EC002093ED00509389
:1006C000F0002091EE0027FDE0CF80E00895CF926A
:1006D000DF92EF92FF920F931F93CF93DF93C8EDBA
:1006E000D0E088818F7E8883E7EDF0E080818160B3
:1006F000808384E082BF81E08093430288818E7F83
:10070000888302EE10E0F80110821092DA0081EE88
:10071000C82ED12CF601108288818F77888388813A
:100720008068888388818F7D888319BC10926802D5
:1007300010926902109267021092660290EEE92E02
:10074000F12CF70180818B7F808388818160888391
:1007500042E060E080E00E943503F60180818E7FF8
:100760008083F801808181608083808188608083BC
:10077000F70180818E7F8083888180618883DF910B
:10078000CF911F910F91FF90EF90DF90CF90089540
:10079000FC01809170029091710286179707A0F07A
:1007A0006115710529F49091E8009E779093E80017
:1007B00090E06115710551F4911108C08091E80035
:1007C00082FF34C080E00895BC01F2CF80916802BE
:1007D0008823C1F18530C1F18091E80083FD30C0EC
:1007E0008091E80082FDEACF8091E80080FFE1CFB0
:1007F0008091F3002091F200382F6115710519F0F6
:100800002830310558F091E02830310509F090E0AA
:100810002091E8002E772093E800CBCF8191809340
:10082000F100615071092F5F3F4FE7CF809168025F
:10083000882341F0853041F08091E80083FFBECFEE
:1008400081E0089582E0089583E008958091450253
:10085000089590912F02803F59F48091300287FFD4
:100860000DC01092300291110BC010922B0208C0E3
:10087000813F81F48091300218169CF3992381F016
:100880008091310290913202892B09F064C010925C
:1008900028020895823F49F497FFF0CF10922F026B
:1008A000809130028111ECCFE0CF833F19F419160B
:1008B000ACF3E4CF20913102893F29F41216F4F60B
:1008C00010923102DBCF8A3F19F427FFD7CFF8CF40
:1008D000209132028B3F29F427FFD0CF10923202B1
:1008E000CDCF8C3F19F41216CCF3C8CF843F31F42E
:1008F00080912E028E7F80932E02C0CF853F21F4FF
:1009000080912E028D7FF7CF863F21F480912E02B9
:100910008B7FF1CF873F21F480912E02877FEBCF31
:10092000883F21F480912E028F7EE5CF8D3F31F4F8
:100930008091FC018E7F8093FC01A0CF8E3F21F43B
:100940008091FC018D7FF7CF8F3F09F097CF809189
:10095000FC018B7FF0CF08958091FC0180FD1AC0CF
:1009600081FD14C082FD14C080912802882391F07B
:100970008C3370F427E0829FC00111246CE370E097
:100980000E94411E862F672B29F0089583E0089569
:1009900087E0089581E008958091FC0180FD16C0F4
:1009A00081FD16C082FD18C080912B02882391F032
:1009B0008C3390F423E2829FC00111246CE370E039
:1009C0000E94411E862F672B49F0089588E0089504
:1009D00081E1089585E0089583E2089581E0089516
:1009E000803F31F40E94CC048195809330020895B9
:1009F000813F19F40E94CC04F8CF823F31F40E9469
:100A0000CC04819580932F020895833F19F40E94AE
:100A1000CC04F8CF893F29F40E94AC0480933102C2
:100A200008958A3F21F40E94AC048195F7CF8B3F53
:100A300031F40E94AC0481958093320208958C3F7A
:100A400019F40E94AC04F8CF843F31F480912E0257
:100A5000816080932E020895853F21F480912E02BB
:100A60008260F7CF863F21F480912E028460F1CF1F
:100A7000873F21F480912E028860EBCF883F21F4DC
:100A800080912E028061E5CF8D3F31F48091FC0191
:100A900081608093FC0108958E3F21F48091FC01D8
:100AA0008260F7CF8F3FB9F78091FC018460F1CF6E
:100AB0009C014FB7F8948091F8019091F901A091B1
:100AC000FA01B091FB014FBF821B930B0895209157
:100AD00012012223C9F02091150227FF15C0E62F2D
:100AE000E695E695E695EE31D8F4E80FF92FF11D7D
:100AF000677021E030E001C0220F6A95EAF7209587
:100B00008281282322830895FC0132960896219140
:100B1000621303C0DF0111971C92E817F907B9F7B8
:100B20000895209112012223C1F02091150227FF80
:100B300014C0E62FE695E695E695EE31F8F4E80F59
:100B4000F92FF11D677021E030E001C0220F6A9596
:100B5000EAF78281822B82830895FC0132962FEF7F
:100B600030E04191641751F02F3F19F4411101C059
:100B7000232F3F5F3630A9F72F3F09F40895820FE6
:100B8000911D27FD9A95FC01628308958091F301E0
:100B900081111092F30108958091F2019091F10179
:100BA000892B9091F001892B809354019091F3014E
:100BB0009923A1F0892B80935401809112018823FD
:100BC00041F18091150287FF24C08EE1E6E5F1E056
:100BD00090E0815000F591110E94C605E091170246
:100BE000F09118023097E1F080911201882359F0BA
:100BF0008091150287FF07C08091540180935501B1
:100C000085E0809354010280F381E02D84E591E03A
:100C1000099486E0DBCF21912223D9F29F5FD9CFBF
:100C20000895E92FEE0FE90FEE0F8E0F982F9770B2
:100C300086958695869525E0829FF0011124E854DB
:100C4000FE4F50E040E080E0219130E0092E02C0EC
:100C5000369527950A94E2F721703327042E01C0B8
:100C6000220F0A94EAF7822B4F5F5F4F4530510500
:100C700059F70895E92FEE0FE90FEE0F8E0F982F19
:100C8000977041E001C0440F9A95EAF786958695E2
:100C9000869595E0899FF0011124E854FE4F30E0DD
:100CA00020E070E05191DF011197CB01022E02C0CC
:100CB000969587950A94E2F781708195852784231C
:100CC00085278C932F5F3F4F2530310559F70895C5
:100CD0008091B70190918601981301C008958F5FAC
:100CE0008770FACF882341F080959091F201892393
:100CF0008093F2010C94CC050895882339F09091EB
:100D0000F201982B9093F2010C94CC050895209158
:100D10007D0130917E012817390771F090937E0193
:100D200080937D01E0911702F0911802309721F035
:100D30000084F185E02D0994089520917B01309184
:100D40007C012817390771F090937C0180937B0117
:100D5000E0911702F0911802309721F00680F78198
:100D6000E02D09940895E0911702F0911802309750
:100D700021F00190F081E02D099480E00895909198
:100D8000150292FF06C0282F28712830F9F4877FBA
:100D9000846093FF06C0282F28712831F1F4877EE4
:100DA00084612091160220FF06C0382F3871383038
:100DB000D9F4877F816021FF06C0282F2871283150
:100DC000D1F4877E816194FD877E0895282F247158
:100DD0002430F9F68B7F8860DCCF282F24712431F2
:100DE00001F78B7E8861DDCF382F3171313019F7F3
:100DF0008E7F8860E0CF282F2171213121F78E7EF0
:100E00008861E1CFCF93DF93972F70E026E0929F28
:100E1000600D711D1124FB0134E5839FE00DF11D70
:100E20001124EE0FFF1FEA55FE4FC591D491CE015C
:100E3000C238D105B9F1E8F5C133D10509F499C03B
:100E400050F5C932D10509F48DC0CA32D10509F473
:100E500097C0C11521E5D20708F0BFC0C11530E524
:100E6000D30708F016C1C83ED10508F09DC0C03EAA
:100E7000D10568F5C83AD10508F089C0C53AD10551
:100E800008F0FFC0C130D10511F1209709F443C02B
:100E90002497E8F440C0C533D10509F45CC0C933D8
:100EA000D105B9F620911502237089F080EE90E00B
:100EB0000EC0C33ED10591F168F4C03ED105F9F0F2
:100EC000C23ED10531F62091150222FD20C0DF91EE
:100ED000CF910895C63ED10561F1C73ED10581F19C
:100EE000C43ED10509F0B5CF2091160221FFEFCF06
:100EF0008091150284FD0FC087EE90E0E8CF20912D
:100F0000150220FD12C13091160230FFE0CF83EEB2
:100F100090E024FFDCCF90E080E0D9CF2091150253
:100F200022FD06C13091160230FDC0CF24FFCFCF85
:100F3000F2CF2091150223FFCACF24FDECCFDCCFE6
:100F40002091150223FDF7C03091160231FFEECF3C
:100F500084EE90E0BCCF2091150225FFB8CF89E246
:100F600090E0B5CF2091150225FFB1CF85E390E049
:100F7000AECF2091150226FFAACF8AE290E0A7CF3C
:100F80002091150226FFA3CF81E390E0A0CFCF3BB5
:100F9000D10508F6C85AD0E0CC0FDD1FCA5EDE4F7F
:100FA00088819981946493CFC11520E2D20760F4BF
:100FB000C11531E0D30708F08ACFCE019065C03F5C
:100FC000D10508F084CFA7CFC11580E4D80708F475
:100FD000A2CFCE019F70906A7ACFC11595E5D9074F
:100FE00010F5C11524E5D20708F088C0C11533E516
:100FF000D30708F06FC0C11582E5D80708F465C0B3
:101000009E012370332781E090E002C0880F991F72
:101010002A95E2F7C695C69520E2C29FE001112409
:101020008C2B9D2B50C0C11599E5D907A0F4C11593
:1010300028E5D20708F067C0C11536E5D30708F0E8
:101040006ACF8C2F0E94BF0690E0982F88278827B0
:101050009F7190623CCFC1158AE5D80708F458C04B
:10106000CE0190568115904208F055CF8D2F8F718B
:101070000E94BF0690E0982F882788279F718C2BAD
:10108000E8CFC55AD0E0CD5EDE4F888190E0906415
:101090001ECF9E01E4E036952795EA95E1F723708F
:1010A0008C2F86958695837030E2839FC001112432
:1010B000922BC37021E030E002C0220F331FCA958B
:1010C000E2F7822B932B9C6802CF9C2F8827816F9D
:1010D000906AFDCE9E012370332781E090E002C02C
:1010E000880F991F2A95E2F7C695C69530E2C39FEF
:1010F000E00111248C2B9D2B9A68E9CE9C2F882728
:10110000846F906AE4CE9C2F8827806F906ADFCE30
:101110008C2F8F700E94BF0634E0D695C7953A9504
:10112000E1F7CF709C2F9069D2CE89E390E0CFCECB
:1011300082EE90E0CCCE86EE90E0C9CEBF92CF9208
:10114000DF92EF92FF920F931F93CF93DF938C0167
:10115000C0901102D0901202E0901302F09014029D
:101160008091F4019091F501A091F601B091F70101
:10117000C82AD92AEA2AFB2ACFE1D0E0BC2ED7011F
:10118000C6010C2E04C0B695A795979587950A942D
:10119000D2F780FD0EC0219788F7B12C8B2DDF91FF
:1011A000CF911F910F91FF90EF90DF90CF90BF9064
:1011B0000895B8018C2F0E940207019761F3EECFCA
:1011C000CF93DF93EC010E949E08BE01DF91CF9187
:1011D0000C9402070E94E008292F2F7092959F70AF
:1011E00092509E3078F4E92FF0E0E053F04E0C94EA
:1011F000551E803F19F020F4883E20F481E00895C8
:10120000843FE1F380E00895883EC0F3813FD1F749
:10121000F5CF822F869586958695089527982F98E5
:10122000089526982E98089525982D9808955698F3
:101230005E980895279A2F9A0895269A2E9A0895CF
:10124000259A2D9A0895CF92DF92EF92FF92CF9335
:101250006B017C01C701AA27BB27C0E10097A1054C
:10126000B10519F4D701CB01C0E0492F5A2F6B2FDC
:101270007727411551056105710519F0C85FDB013C
:10128000CA01AC01BD01E4E0769567955795479595
:10129000EA95D1F7411551056105710519F0CC5F4B
:1012A000DB01CA01AC01BD0132E076956795579527
:1012B00047953A95D1F7411551056105710519F02A
:1012C000CE5FDB01CA01B695A79597958795892BC7
:1012D0008A2B8B2B09F0CF5F0E9417090E941409FB
:1012E0000E9411090E940E09C150C73040F4EC2F32
:1012F000F0E0E252F04E0C94551E0E942009C70106
:10130000B601CF91FF90EF90DF90CF9008950E94AB
:1013100020090E941D09F3CF0E9420090E941A098A
:10132000EECF0E9420090E941D09F8CF209828982E
:101330002198299822982A9823982B9852985A985D
:1013400053985B983E98469808958098889A81981B
:10135000899A84988C9A85988D9A86988E9A87987F
:101360008F9A0895CF93DF9300D00F92CDB7DEB759
:1013700090916802943019F589837B836A8383E0B6
:101380008093E9008FEF9091E800815095FD06C0B1
:1013900095ED9A95F1F700008111F5CF8091E80065
:1013A00085FF0DC050E040E063E070E0CE010196A3
:1013B0000E94EC028091E8008E778093E8000F9005
:1013C0000F900F90DF91CF910895BC0184E00C94B1
:1013D000B209BC0183E00C94B2099C0182E08093C5
:1013E000E9009FEF8091E800915085FD06C085EDF2
:1013F0008A95F1F700009111F5CF8091E80085FF03
:101400000CC050E040E065E070E0C9010E94EC02D1
:101410008091E8008E778093E8000895CF93DF9362
:10142000EC01809112018823B1F18091150287FFB0
:1014300032C060E283E08093E9008FEF9091E80092
:10144000815095FD06C095ED9A95F1F70000811148
:10145000F5CF8091E80085FF1BC08091120170E0FC
:1014600050E040E0811104C050E040E068E070E0EE
:10147000CE010E94EC028091E8008E778093E80014
:1014800080E2FE01A6E4B2E001900D928A95E1F7B8
:10149000DF91CF91089568E081E0CDCFEF92FF9288
:1014A0000F931F93CF93DF930E9417090E94140993
:1014B0000E9411090E940E0988E8E82EF12C8FEF96
:1014C00090E0F701918380830AE810E0F8019183AE
:1014D0008083CCE8D0E0998388830E942009FFEFC5
:1014E00020E782E0F15020408040E1F700C000009A
:1014F0000E941D099FEFE0E7F2E09150E040F040CC
:10150000E1F700C000000E941A092FEF80E792E087
:10151000215080409040E1F700C000000E94140973
:10152000EFEFF0E722E0E150F0402040E1F700C0AB
:1015300000000E9411098FEF90E7E2E08150904097
:10154000E040E1F700C000000E940E098091FF0119
:101550008770FFEF8F9FC001112495958795959512
:1015600087959927F70191838083F8019183808380
:10157000998388830E9417090E9414090E94110907
:10158000DF91CF911F910F91FF90EF900C940E0976
:10159000CF9384E090E00E945B1EC82F81E290E030
:1015A0000E945B1E982F8C2FCF9108956FEE7EEFD7
:1015B00090E080E00E948D1E60E082E090E00E945A
:1015C0006F1E60E083E090E00E946F1E1092F401B5
:1015D0001092F5011092F6011092F70160E084E09C
:1015E00090E00E946F1E60E081E290E00E946F1E1A
:1015F00060E085E090E00E946F1E60E086E090E091
:101600000E946F1E6FEF87E090E00E946F1E40E027
:1016100050E0BA0188E090E00E94811E60E08DE019
:1016200090E00E946F1E40E050E0BA0188E190E037
:101630000E94811E60E087E190E00E946F1E40E002
:1016400050E0BA018CE190E00E94811E60E080E2EF
:1016500090E00E946F1E40E050E0BA0188E190E007
:101660000E94811E1092FF0110920002109201024E
:101670001092020284E080618093FF014091FF019B
:101680005091000260910102709102028FE090E09F
:101690000E94811E40E050E0BA0183E190E00C948A
:1016A000811ECF93C82F873070F5809106019091ED
:1016B0000701892B89F564E670E080E40E947A1DB9
:1016C0009093070180930601892BD1F464E670E0C2
:1016D00082E10E94D61D9093070180930601892B19
:1016E00079F481E090E001C0880FCA95EAF764E6DA
:1016F00070E080950E94D61D9093070180930601AB
:10170000CF910C94291E8A30B9F040F4883071F0E2
:10171000893079F0209A2898CF9108958C3091F0F3
:1017200070F08D30B9F73E9A4698F6CF219A2998F5
:10173000F3CF229A2A98F0CF239A2B98EDCF529A82
:101740005A98EACF539A5B98E7CF80E290E0909363
:101750000701809306018091740181110EC00E94DF
:10176000741D81E0809374012FEF83ED90E321508D
:1017700080409040E1F700C0000064E670E080E443
:101780000E947A1D9093070180930601892B09F02E
:101790004EC064E670E080E00E94D61D9093070181
:1017A00080930601892B09F042C064E670E080E076
:1017B0000E94D61D9093070180930601892BB9F5ED
:1017C00064E670E08FE30E94D61D9093070180933A
:1017D0000601892B61F50E94291E64E670E080E411
:1017E0000E947A1D9093070180930601892BF9F4DA
:1017F00064E670E08CE00E94D61D90930701809310
:101800000601892BA1F464E670E080E00E94D61DF9
:101810009093070180930601892B49F464E670E0F8
:101820008FE30E94D61D90930701809306010E94CA
:10183000291E809106010895CF93873050F580913D
:10184000060190910701C0E0892B71F464E670E015
:1018500081E40E947A1D9093070180930601892BF1
:1018600031F0C0E00E94291E8C2FCF91089584E6AC
:1018700090E00E94051E97FF05C09093070180939A
:101880000601EFCFC82FC0951092070110920601F4
:10189000E9CFCFB18FB1869586958C73C3708C2BB1
:1018A000C82FC095E1CF1F920F920FB60F9211244F
:1018B0002F933F934F935F936F937F938F939F9358
:1018C000AF93BF93EF93FF938091E10082FF09C034
:1018D0008091E20082FF05C08091E1008B7F8093C0
:1018E000E1008091DA0080FF24C08091D80080FF61
:1018F00020C08091DA008E7F8093DA008091D90039
:1019000080FF9BC080E189BD82E189BD09B400FEF2
:10191000FDCF81E08093680280914302811109C06C
:101920000E949C020E9467038091E2008460809381
:10193000E2008091E10080FF17C08091E20080FF0B
:1019400013C08091E2008E7F8093E2008091E200DC
:1019500080618093E2008091D80080628093D800FB
:1019600019BC85E0809368028091E10084FF29C062
:101970008091E20084FF25C080E189BD82E189BDBC
:1019800089B5982F917080FFFBCF8091D8008F7D13
:101990008093D8008091E1008F7E8093E100809158
:1019A000E2008F7E8093E2008091E200816080936C
:1019B000E20080916902882309F445C084E08093A5
:1019C00068028091E10083FF27C08091E20083FFDD
:1019D00023C08091E100877F8093E10082E08093C3
:1019E0006802109269028091E1008E7F8093E1008D
:1019F0008091E2008E7F8093E2008091E20080611E
:101A00008093E20042E060E080E00E943503809134
:101A1000F00088608093F000FF91EF91BF91AF914B
:101A20009F918F917F916F915F914F913F912F91F6
:101A30000F900FBE0F901F90189519BC109268025E
:101A40001092430276CF8091E30087FD93E090935C
:101A50006802B7CF78941F921FB61F9211248F93FC
:101A60009F93AF93BF938091F8019091F901A0915A
:101A7000FA01B091FB010196A11DB11D8093F801FF
:101A80009093F901A093FA01B093FB01BF91AF913C
:101A90009F918F911F901FBE1F9018952FB7F8949C
:101AA0008091F8019091F901A091FA01B091FB01A8
:101AB0002FBF08950E944E0D9C0190912F0280919E
:101AC0003002982B21F030932D0220932C0290911C
:101AD000310280913202982B21F030932A02209318
:101AE0002902E0911702F0911802309731F004803A
:101AF000F581E02D8EE292E0099408951092F101B3
:101B00001092F0010E94CC0585E0EEE2F2E0DF01E8
:101B10001D928A95E9F710922B02109228021092DA
:101B2000FC010E945A0D90E080E00E949D0690E02A
:101B300080E00C9487060E94230960931102709341
:101B4000120280931302909314020C947E0D0F9353
:101B50001F9341E050E060E070E004C0440F551F67
:101B6000661F771F8A95D2F7CB01BA0160957095F1
:101B7000809590950091110210911202209113020C
:101B80003091140260237123822393231F910F91BC
:101B90000C949B0D9091EF01809589238093EF0128
:101BA000282F277071F4282F082E000C330B921762
:101BB000130639F08595859585950E94A70D10929D
:101BC000EF0108950F931F9341E050E060E070E053
:101BD00004C0440F551F661F771F8A95D2F7809166
:101BE000110290911202A0911302B09114028A0185
:101BF0009B01082B192B2A2B3B2BC901B8011F91E4
:101C00000F910C949B0D6093F4017093F5018093F8
:101C1000F6019093F7010C947E0D1092F2018091E1
:101C20001201E6E5F1E0882359F08091150287FF63
:101C300007C08EE1DF011D928A95E9F70C947E0DB5
:101C400086E0F8CF1F93CF93DF93CDB7DEB7AA9787
:101C50000FB6F894DEBF0FBECDBF8AE692E02091AA
:101C6000F100DC012D93CD01B2E082379B07B9F77B
:101C700080916B02833009F471C0B8F4813009F4AB
:101C800048C0823009F4B2C08091E80083FF83C26B
:101C900080916A0290916B029A3008F07CC2E92F21
:101CA000F0E0EB51F04E0C94551E8A3009F48DC0D3
:101CB0008B3009F470C0893039F780916A02813223
:101CC00019F780916E0290916F02009711F00297C0
:101CD000D9F68091E800877F8093E8008091E80042
:101CE00082FF37C09091F3008091F200029729F4AF
:101CF0008091F1008B7F813021F48091F1008093FD
:101D000045028091E8008B778093E8000E941603DB
:101D1000BBCF80916A02813A09F0B6CF8091E8008A
:101D2000877F8093E80080916E0290916F02892BEB
:101D300061F460E286E492E070E00E94C803809162
:101D4000E8008B778093E8009FCF60E090E080E030
:101D5000F3CF809168028111C1CF96CF80916A0242
:101D6000813A09F091CF80916E0290916F02892B98
:101D700009F08ACF8091E800877F8093E800809106
:101D8000E80080FFFCCF809112018093F1008091E8
:101D9000E8008E77B9CF80916A02813209F074CF62
:101DA00080916E0290916F02892B09F06DCF809126
:101DB000E800877F8093E8000E94160380916C0200
:101DC000809312010E940D0E5FCF80916A028132D2
:101DD00009F05ACF8091E800877F8093E8000E9445
:101DE000160380916D02809344024ECF80916A0267
:101DF000813A09F049CF8091E800877F8093E8001D
:101E00008091E80080FFFCCF80914402BECF8038F3
:101E100099F0823809F0BFC180916E028F708730CF
:101E200008F0B9C18093E9008091EB0085FB882719
:101E300080F91092E90006C08091660290916702D5
:101E4000911182609091E800977F9093E8008093D1
:101E5000F1001092F1008091E8008E7798C18823FC
:101E600009F486C1823009F096C180916C0281111B
:101E700089C180916E028F702FEF280F263008F0F5
:101E80008AC18093E9002091EB0020FF7BC1933051
:101E900031F48091EB0080628093EB0073C19091EC
:101EA000EB0090619093EB0021E030E001C0220F45
:101EB0008A95EAF72093EA001092EA008091EB00FD
:101EC0008860EACF811167C110916C021F77809101
:101ED000E3008078812B8093E3008091E800877F86
:101EE0008093E8000E9416038091E80080FFFCCFF9
:101EF0008091E30080688093E30082E0111183E029
:101F00008093680248C18058823008F044C1209113
:101F10006C0230916D022C3DE3E03E07A1F583E0B9
:101F20008A838AE289834FB7F894DE01139620E012
:101F30003EE051E2E32FF0E050935700E49120FFA0
:101F400003C0E295EF703F5FEF708E2F90E0EA30B4
:101F5000C0F0C7968D939D932F5F243159F74FBFE3
:101F60008091E800877F8093E8006AE270E0CE010C
:101F700001960E94C8038091E8008B778093E80067
:101F80000AC1C096E7CF80916E0290916F02432FF5
:101F900055274330510509F44AC078F541305105C1
:101FA00009F47AC084E590E0E6E4F4E042305105BB
:101FB00009F0F1C02091E800277F2093E8002091EC
:101FC0007002309171028217930708F49C0140E07F
:101FD0002115310509F065C0411163C08091E80009
:101FE00082FDC9CF80916802882329F2853019F2D9
:101FF0008091E80083FFF2CFBECF4132510509F452
:102000003CC04232510509F0C6C08330910508F04A
:10201000C2C0FC01EE0FFF1FE95BFE4F0190F08193
:10202000E02D8C5B9E4FDC018C9190E01AC0332731
:1020300021303105D1F02115310561F02230310513
:1020400009F0A9C0ECEAF4E0E4918E2F90E0ECEA0C
:10205000F4E007C0E6EFF4E0E4918E2F90E0E6EFC5
:10206000F4E0009709F497C0A5CFE4ECF4E0E49124
:102070008E2F90E0E4ECF4E0F4CF8330910508F08B
:102080008AC0880F991FFC01E35BFE4F0190F0812D
:10209000E02D89E090E08ECF82E190E0EAE9F4E083
:1020A00089CF80916802882309F465CF853009F4CF
:1020B00062CF8091E80083FD5ECF8091E80082FDD1
:1020C0008DCF8091E80080FF83CF9091F3008091C5
:1020D000F2002115310519F08830910550F041E0EA
:1020E000089709F040E08091E8008E778093E8003F
:1020F0006FCF44914093F100319621503109019600
:10210000E8CF803809F047C08091E800877F80934E
:10211000E800809169028093F1009DCE81113BC05F
:1021200010916C021230B8F58091E800877F80939F
:10213000E800109369020E941603112311F084E055
:1021400005C08091E30087FDFACF81E080936802AB
:1021500042E061EC81E00E94350342E061EC82E004
:102160000E94350342E261EC83E00E94350313C014
:1021700080916C02813079F481E0933009F080E045
:10218000809367021092E9008091E800877F809336
:10219000E8000E9416038091E80083FF0AC0809146
:1021A000E800877F8093E8008091EB008062809355
:1021B000EB00AA960FB6F894DEBF0FBECDBFDF913D
:1021C000CF911F9108951F920F920FB60F92112475
:1021D0002F933F934F935F936F937F938F939F932F
:1021E000AF93BF93CF93DF93EF93FF93D091E90029
:1021F000DF708091EC00C82FC17080FDC0E81092A4
:10220000E9008091F000877F8093F00078940E942D
:10221000220E1092E9008091F00088608093F00017
:10222000CD2BCF70C093E900FF91EF91DF91CF915B
:10223000BF91AF919F918F917F916F915F914F91DE
:102240003F912F910F900FBE0F901F9018958823EC
:10225000B1F19CEF980F913A38F4682F84E591E042
:102260000E9467050C94CC0590E2980F983088F492
:10227000877021E030E0A90102C0440F551F8A9504
:10228000E2F7CA0180959091F20189238093F201CF
:10229000E9CF9BE5980F933020F490E080E00C9418
:1022A0009D0698E5980F973120F490E080E00C941B
:1022B0008706803F20F00E9429040C945A0D08954F
:1022C000CF93C82F882309F46EC08CEF8C0F813A0E
:1022D000B8F580911201882311F18091150287FFD2
:1022E0001EC0EC2FE695E695E695F0E0EC5AFE4F21
:1022F000828190E04C2F477021E030E002C0220F35
:10230000331F4A95E2F782239323892B89F06C2FA0
:1023100084E591E00E9467050E94CC0509C0E6E5CE
:10232000F1E08191C81799F381E0EC35F807C9F71E
:102330006C2F84E591E00E949105CF910C94CC051F
:1023400080E28C0F883068F4C77021E030E001C073
:10235000220FCA95EAF78091F201822B8093F20155
:10236000ECCFEBE5EC0FE33040F4F0E0ED5EFE4F38
:10237000808190E0CF910C949D06E8E5EC0FE73169
:1023800050F4F0E0EE0FFF1FEA5EFE4F8081918176
:10239000CF910C948706C03F30F08C2F0E94F00440
:1023A000CF910C945A0DCF9108950F931F93CF9313
:1023B000DF93C62FD42F022FFC0182818823A1F046
:1023C000609374020E944E0D909373028093720288
:1023D000C77081E001C0880FCA95EAF7DF91CF91FD
:1023E0001F910F910C947D0680917402681338C080
:1023F00080917202909173020E945805883C910569
:1024000078F510E21D0FCD17B9F080E28C0F8830FF
:1024100040F4C77081E001C0880FCA95EAF70E94B6
:102420007206183048F481E09D2F977001C0880F24
:102430009A95EAF70E947D06802F0E946011802FF6
:102440000E942711183098F4D77081E001C0880FDE
:10245000DA95EAF7DF91CF911F910F910C947206F4
:10246000C77081E001C0880FCA95EAF7F3CFDF910A
:10247000CF911F910F9108954F925F926F927F922B
:102480008F929F92AF92BF92CF92DF92EF92FF9284
:102490000F931F93CF93DF9300D000D00F92CDB74F
:1024A000DEB77C01FC0183819481892B39F0108196
:1024B000D180812F8D218F3F09F0A5C40F900F90FF
:1024C0000F900F900F90DF91CF911F910F91FF9080
:1024D000EF90DF90CF90BF90AF909F908F907F90C4
:1024E0006F905F904F9008950E949E08082F682F6C
:1024F00089819A810E943A06E12FF0E026E0D29E7F
:10250000E00DF11D112434E5039FE00DF11D1124B0
:10251000EE0FFF1FEA55FE4F059114910A328DE52B
:10252000180709F088C0F70182818823C9F18091DA
:10253000FF0191E0980F9770887F953008F4892B00
:102540008093FF018091FF018770FFEF8F9FC00193
:10255000112495958795959587959927909389004E
:102560008093880090938B0080938A0090938D00D5
:1025700080938C004091FF01509100026091010214
:10258000709102028FE090E00E94811E6091110222
:102590007091120280911302909114020E942309FB
:1025A000F7018281882309F43FC41092740202303B
:1025B000FCE51F0708F477C106312CE5120738F057
:1025C00098012B5F3C452730310508F06CC10E9413
:1025D000C80A90931602809315020F303CE513074A
:1025E00009F442C108F0BCC008309CE5190709F4A1
:1025F00025C108F091C00430FCE51F0709F412C1A1
:1026000008F077C002303CE5130709F403C103303A
:102610001C4509F403C1609115021091160284E073
:1026200090E00E946F1E612F81E290E00E946F1E79
:102630000E940D0E29C0043F2CE5120709F44AC080
:1026400098F4093D8CE5180709F440C00A3D9CE563
:10265000190709F44BC0083DECE51E0709F0A0CFAF
:1026600026E241EE61EE0DC0063FFCE51F07D1F109
:10267000A8F127E245EE66EE073F3CE5130709F0B7
:102680008FCFC7010E94D5118091EF01877009F4A7
:1026900015CFF7018281882309F410CF82E00F90D3
:1026A0000F900F900F900F90DF91CF911F910F918E
:1026B000FF90EF90DF90CF90BF90AF909F908F9062
:1026C0007F906F905F904F900C94CA0D27E245EE7B
:1026D00065EED7CF26E241EE60EED3CF27E245EE9E
:1026E00064EECFCF26E241EE62EECBCF28E241E0AE
:1026F000EFCF80911502806106309CE5190709F43F
:1027000047C080911502886007301C4508F440C01E
:102710008091150280623CC00B30FCE51F0709F474
:102720009BC068F409303CE5130709F48BC00A30FC
:102730001C4509F070CF809115028C6029C08091F2
:1027400015028B7F0D309CE5190711F18091150260
:102750008D7F0E301C45E0F080911502877F18C0F8
:102760000B3FFCE51F0709F461C060F502313CE551
:10277000130709F481C078F400319CE5190709F4C6
:1027800077C0809115028F7B01311C4509F043CF42
:102790008093150240CF0431FCE51F0709F47AC08D
:1027A00008F470C005311C4509F035CF8091150241
:1027B00082FB992790F921E0922790FB82F990FB08
:1027C00083F9E6CF0E3F8CE5180709F449C070F491
:1027D0000C3FECE51E0771F1809116028E7F0D3FD4
:1027E0001C4509F018CF8093160215CF01152DE571
:1027F000120709F44BC060F101301D4509F00BCF01
:1028000080911602982F909591708E7F892B90FB66
:1028100081F9E9CF809115028160BACF80911502CC
:102820008260B6CF809115028460B2CF809116028B
:102830008160D9CF809116028260D5CF8091150238
:102840008064A6CF0E940D0E809115028068A0CFF3
:10285000809116028360C7CF809115028E7F98CF3A
:10286000809116028D7FBFCF809115028F7E90CF11
:10287000809115028F7D8CCF0E940D0E80911502E4
:102880008F7786CF80911502837F82CF8091160249
:102890008C7FA9CF0E940D0E90911502892F97FB76
:1028A00087F9805875CF06319CE5190709F0C9C230
:1028B0008091F2018A7A91E009F490E090937F018F
:1028C00069E2811165E384E591E00E9491050E942F
:1028D000CC05DACE0E940D0EEFEFF4E32CE0E150D0
:1028E000F0402040E1F700C00000F89481E08093C0
:1028F000E00080E28093D8001092C9008FE19EE44E
:102900000197F1F700C000001DBA109268001CBCCE
:1029100010BE1FBA10927A0010926E0010926F00D3
:1029200010927100109272001092C9001092BC00B7
:1029300014B817B81AB81DB810BA1092BC0015B860
:1029400018B81BB81EB811BA0C94003F9DCE0E9457
:10295000D60A9ACEC8010E941106D82E89C2212F0C
:102960002F70A22E107F19F0A29420EFA222DD205A
:10297000C9F0AA2069F080E2800F883010F0811041
:102980000BC08091F201A82AA092F2010E94CC050E
:10299000802F0E94601118C08091F101A82AA09296
:1029A000F101F4CF802F0E942711AA2069F0A09492
:1029B000005E083010F0811046C08091F201A8221C
:1029C000A092F2010E94CC052B2D2850330B24300D
:1029D000310510F40E94B306CC20A9F08091EF01DC
:1029E00080FD11C0F70112828595859585950E941D
:1029F000E20DC7010E943C128091EF0185958595FB
:102A000085950E94A70D85E0F701DE0111960190E2
:102A10000D928A95E1F789819A810E9411069A8127
:102A2000E981F0E026E0929FE00DF11D112434E5EC
:102A3000839FE00DF11D1124EE0FFF1FEA55FE4F9D
:102A4000859194913BCD8091F101A822A092F10152
:102A5000B9CF312F3F70932E107F103219F092941E
:102A600090EF9922882041F081E0881631F1DD2035
:102A700079F1AA2041F18CCFDD2091F09091F30102
:102A8000892D892BA11003C00E947D069DCFE1E016
:102A9000AE12FACF981709F497CF8093F30194CF31
:102AA000A11006C00E94C605892D0E9472068CCF17
:102AB000F1E0AF1609F488CFF5CFDD2031F021E049
:102AC0002A1508F481CF892DDFCFA1107DCFECCF5F
:102AD000AA2051F339E383128FC18FEF97EEE3E021
:102AE00081509040E040E1F700C0000085C1812F97
:102AF00086958695837061F0813009F065CFC801B5
:102B00009370D11002C090E080E00E9487065CCFF5
:102B1000C8019370D11002C090E080E00E949D0631
:102B200053CF802FDD2029F00E94F0040E945A0D1F
:102B30004BCF0E942904FACF812F837009F066C021
:102B4000D11042CF802F829586958770880F880F8D
:102B5000602F6F70462E512C712C612C082E04C0F2
:102B6000440C551C661C771C0A94D2F740E050E0D8
:102B7000BA0104FF0FC04FE050E060E070E004C015
:102B8000440F551F661F771F8A95D2F740955095C1
:102B900060957095812F869586958370823019F1A6
:102BA000D8F40091F4011091F5012091F6013091D3
:102BB000F701813069F04429552966297729CB012D
:102BC000BA0160237123822393230E94030EFCCE5B
:102BD000402A512A622A732ACB01BA016429752935
:102BE00086299729F2CF442955296629772900910A
:102BF000F4011091F5012091F6013091F701CB011C
:102C0000BA016027712782279327DFCF8695DD20C1
:102C100011F0812F8170882309F4D6CE802F829500
:102C200086958770880F880F602F6F70462E512C05
:102C3000712C612C082E04C0440C551C661C771C9A
:102C40000A94D2F740E050E0BA0104FF0FC04FE011
:102C500050E060E070E004C0440F551F661F771F0E
:102C60008A95D2F74095509560957095812F8695FD
:102C700086958370823019F1D8F400911102109179
:102C800012022091130230911402813069F044291C
:102C9000552966297729CB01BA0160237123822344
:102CA00093230E949B0D90CE402A512A622A732AB8
:102CB000CB01BA016429752986299729F2CF4429C5
:102CC000552966297729009111021091120220914D
:102CD000130230911402CB01BA01602771278227B9
:102CE0009327DFCF1F70DD2029F0812F0E94E20D96
:102CF000802FCACE802F0E947206812F0E94A70DBE
:102D000063CE802FF2EF8F1609F44EC0F81578F0DD
:102D100020EF821619F131EF831609F43DC0DD2052
:102D200009F465C0A11034CE812F8F713AC093EFA2
:102D3000891609F43EC0E4EF8E12F1CFDD2009F4CC
:102D40004BC01F71812F0E94E20D28E0129FC0012D
:102D5000112483608093EF01812F23C0DD20B9F01F
:102D6000A11032CE1F7161E070E080E090E004C0FD
:102D7000660F771F881F991F1A95D2F700911102CD
:102D8000109112022091130230911402A6CFF1E0AB
:102D9000FA1508F419CEE6CF812F8F71DD2009F4E2
:102DA000ADCF0E94E20D10CE812F8F71DD20C9F3CF
:102DB000A5CF60E070E0CB01DD2009F472CF1F7178
:102DC00061E070E080E090E004C0660F771F881F2C
:102DD000991F1A95D2F765CF81E00E94CA0D31E0A4
:102DE0003A1508F0F1CD82E00E94CA0DEDCDAA207F
:102DF00039F0893309F471CE802F0E942711E4CD78
:102E0000812F8F717BCF85E0DE01119601900D92AD
:102E10008A95E1F7F701228189819A81211164CB9A
:102E20000E941106082F68CB06311C4599F4809149
:102E30007F0169E2811165E384E591E00E94670505
:102E400046CD01152CE5120709F444CD0F3D1C4574
:102E500009F47DCDF70100811181882309F47ACD31
:102E6000C8010E949E08D82E682FC8010E943A0609
:102E7000B8018D2D0E9402078C01882EF701A580D4
:102E8000A2944FE0A422D280D1101092F10180913F
:102E9000EF01877099F0DD2089F0812F807F8034E9
:102EA00021F080E2800F883048F082E00E94CA0D55
:102EB0008091EF018770CC24C3948111C12CB12E75
:102EC000B2943FE0B322FBE0FB1508F47DCDEB2D7F
:102ED000F0E0E151F04E0C94551E1F93CF93DF9319
:102EE00080918501807FA9F480918201882389F0F7
:102EF0008091B701D091860160918001709181012C
:102F0000A0918301B0918401C62FC72316E0D81386
:102F100004C0DF91CF911F91089590E0109711F0B8
:102F2000CF3F19F401968770F2CF189F9001199F37
:102F3000300D1124F901E957FE4F41814713F2CFBB
:102F400040814613EFCF42814111ECCF4381548140
:102F50004A1B5B0B483C510528F7809185018F7017
:102F6000806180938501F901E457FE4F80818F7065
:102F70008061808380E891E00E943C12DF91CF91D4
:102F80001F910C946806AF92BF92CF92DF92EF929E
:102F9000FF920F931F93CF93DF93CDB7DEB7619767
:102FA0000FB6F894DEBF0FBECDBF8C0185E0F801EF
:102FB000DE011D9601900D928A95E1F7F80180815E
:102FC0009181E28020E8A22E21E0B22E609183015F
:102FD000709184016115710509F43EC13091800141
:102FE00040918101232F24232F3F09F435C1C38051
:102FF000D480F0908201F601E61BF70BFF2009F464
:10300000FBC020918501522F507FE83CF10508F06C
:10301000BBC0511178C0FE2C491321C038131FC00A
:10302000E1101DC02F70206120938501C5010E9411
:103030003C1280918501F80185838F2D61960FB632
:10304000F894DEBF0FBECDBFDF91CF911F910F91DE
:10305000FF90EF90DF90CF90BF90AF900895CD2874
:1030600029F0282F29232F3F09F014C120E0F22F47
:10307000F170DF2E20FF3DC02091B7014091860105
:1030800056E0241315C08D879E878D859E850E94EE
:10309000E008292F22952F702230F8F0243020F5F7
:1030A0009F70F9F0F8019581907FD9F4D12C1FC061
:1030B00030E0529FF001539FF00D1124E957FE4F6D
:1030C0006181961306C06081861303C06281E61297
:1030D00010C02F5F3F4F2770D4CF9F7011F088230F
:1030E00029F3805E883010F3C8010E943C12FD2C49
:1030F000A4CFEE2009F4A1CF809185018160809357
:103100008501F12C9ACF491312C0381310C0E11079
:103110000EC0F8012583C8010E943C1286E0F80128
:10312000A0E8B1E001900D928A95E1F786CF8D87F6
:103130009E878D859E850E94EA08882309F1EE20EE
:10314000F9F080918501803270F0209180013091FA
:10315000810138872F831986DB86CA868C87CE014A
:1031600007960E943C1286E0F801A0E8B1E00190C9
:103170000D928A95E1F70E946D17FF24F3945DCFBD
:10318000C8010E943C12F9CF51110AC080E891E0B9
:103190000E943C1286E0F50111928A95E9F7B1CFC1
:1031A00049130FC038130DC0E1100BC0F80125837F
:1031B000C8010E943C1286E0F50111928A95E9F758
:1031C0003CCF8D879E878D859E850E94EA08882347
:1031D000B9F2EE20A9F280918501803220F220918F
:1031E0008001309181013A8329831B82DD82CC8268
:1031F0008E83CE010196B5CFE83CF105E0F6FE2CBA
:10320000EE2009F4BDCF491316C0381314C08091C5
:10321000850180FD83CF982F907F09F47FCFF8013F
:103220008583903F09F477CF982F907F905F8F70C0
:10323000892B858370CF8D879E878D859E850E9483
:10324000EA08811190CF809185018160809385018A
:10325000C8010E943C12F1CEEE2009F491CF8D8777
:103260009E878D859E850E94EA08F82E882309F4A2
:1032700087CF86E0F801A0E8B1E001900D928A9531
:10328000E1F780918001909181010E94E0080E9405
:103290006D17D3CE21E02E25EACE1F93CF93DF9377
:1032A000CDB7DEB767970FB6F894DEBF0FBECDBFC0
:1032B0004B8B5C8B6D8B7E8B8F8B1A8A198A85E08A
:1032C000FE017396DE011D9601900D928A95E1F73D
:1032D00086E0FE013D96DE01179601900D928A95DB
:1032E000E1F7CE0107960E94C317811112C086E054
:1032F000FE013796DE01119601900D928A95E1F755
:103300008A859B85892B29F08F81988589238F3F1A
:10331000B1F516E08091B7019091860189131DC027
:1033200067960FB6F894DEBF0FBECDBFDF91CF9189
:103330001F91089596E0929FD001939FB00D1124A4
:10334000A957BE4FFE01319601900D929A95E1F773
:10335000809386010E946806DCCF819FC001112402
:1033600089579E4F0E94C3178823D1F28091B701DD
:1033700090E00196877099278093B701CBCF209179
:10338000860130E0C9010196877099274091B70105
:103390004817190679F60E940D0E109286011092B8
:1033A000B70186E0E0E8F1E0DF011D928A95E9F7D8
:1033B000B0CF8F929F92BF92CF92DF92EF92FF9207
:1033C0000F931F93CF93DF93809106019091070194
:1033D000892B91F0809175018F5F80937501811128
:1033E0000BC00E94A50B90E090930701809306010B
:1033F000892B11F40E944E0A23E0822E22E0922EA5
:10340000740110E000E097E0C92EC00E802F0E94EA
:10341000510B8C2D0E94510B802F0E941C0CE70138
:1034200099917E01D12C891729F0FE013197808373
:10343000DD24D3948C2D0E941C0CF70196818917F2
:1034400009F47AC0868381E08D29182B0E949609A1
:103450000F5F0730C1F60E944E0D609177017091A9
:10346000780190937801809377012091760130E084
:10347000261B370B820F931F6BEF70E00E942D1EEF
:10348000E82E392F082F80937601F0907A01FF20E3
:1034900009F45EC010927A01E091FD01F091FE0105
:1034A000AF01425F5F4F20E08BEFB82E6BEF70E013
:1034B000A191AB3F99F0CA2ED12C8E2D932F0A17D4
:1034C000E8F18C199D09092E000CAA0BBB0B4E9735
:1034D000A105B105C8F1DF011197BC924E175F0736
:1034E00039F720937A01111102C0211133C01092D3
:1034F0007901A091FD01B091FE0190917A01EAE17C
:10350000F2E080E03191E40129914E01321751F04F
:103510003C913B3FD9F40C93AF0141505109EA0172
:10352000288391E01196D2E0E832FD0759F7909395
:103530007A018093790112C080E086CFDB01AC195B
:10354000BD098A0F9B1FBFCF2F2DC8CF81E0EACFC7
:103550001111CDCF809179018111C9CF812FDF91D8
:10356000CF911F910F91FF90EF90DF90CF90BF9080
:103570009F908F900895CDB7DEB72F970FB6F89430
:10358000DEBF0FBECDBF84B7877F84BF0FB6F89470
:10359000A89580916000886180936000109260001F
:1035A0000FBE80E890E00FB6F8948093610090938E
:1035B00061000FBE85B7806885BF85B7806885BF0D
:1035C0000E949C020E9467038091E20084608093C5
:1035D000E2007894809168028823A1F01091E900BC
:1035E0001F709091EC00892F817090FD80E8182B5E
:1035F0001092E9008091E80083FD0E94220E1F7066
:103600001093E90082E084BD93E095BD9AEF97BDE9
:1036100080936E000E94A50B90E090930701809329
:1036200006010E9496090E94A509E3E0F2E081E10B
:1036300092E0AAE1B2E011921D928E179F07D9F78E
:103640008EE090E00E94A31E8093FD019093FE0106
:10365000FC010E962BEF21938E179F07E1F790E068
:1036600080E00E94691E8F3E9E4F11F00E94D60A94
:1036700089EA8093800089E08093810024982C98C7
:103680003F988AB18F7C8AB96E98479A8BB18063D4
:103690008BB9769A8FE090E00E94631E6093FF01E1
:1036A00070930002809301029093020267704FEFC3
:1036B000649FB00111247595679575956795772777
:1036C000709389006093880070938B0060938A00E8
:1036D00070938D0060938C000E944E0A90E080E011
:1036E0000E94691E8F3E9E4F11F00E94D60A82E012
:1036F00090E00E945B1E809334020E94C80A90935F
:1037000016028093150283E090E00E945B1E682FF2
:1037100070E090E080E00E94030E609111027091D1
:10372000120280911302909114020E94230988E0F2
:1037300091E0909318028093170298E1E92EF12C02
:1037400028E2C22E22E0D22E8AE192E03EE0B32EA1
:10375000B80E80E4A82E8091680200E112E1853065
:1037600009F446C10E94D919E5E3F2E0AAE1B2E00A
:1037700010E000E0302F8D912191281709F447C106
:1037800090E0992493942827422F492109F43AC1C3
:103790009E833F83892191E009F490E098870E94FD
:1037A0004E0D8160782F9A8789874E815F81688569
:1037B0008A850E944D19F801EB5CFD4F80819826A7
:1037C000908285E0EEE2F2E0DE01119601900D922A
:1037D0008A95E1F790902F0280903002109131028B
:1037E0000091320210922F02109230021092310298
:1037F00010923202892D882909F448C080912C0248
:1038000090912D020E9458059C0190912B029923C2
:1038100009F43FC125313105C8F19F3F19F09F5F81
:1038200090932B02992059F00E94CC049FEF191419
:103830000CF491E0899F802D112480932F02882021
:1038400059F00E94CC049FEF18140CF491E0899F6A
:10385000802D11248093300230912F023323B1F058
:1038600020913002222391F045EB3403C001112452
:10387000992309F4E3C090932F0245EB24039001B0
:103880001124332309F4DEC030933002812F802BC2
:1038900009F448C08091290290912A020E9458059B
:1038A0009C0190912802992309F4EEC0253131053D
:1038B000C8F19F3F19F09F5F90932802112359F0A0
:1038C0000E94AC049FEF11160CF491E0899F802DAB
:1038D000112480933102002359F00E94AC049FEF21
:1038E00010160CF491E0899F802D112480933202F0
:1038F000309131023323B1F020913202222391F032
:1039000045EB3403C0011124992309F49FC090931F
:10391000310245EB240390011124332309F49AC0AA
:103920003093320280912F0290913002892B909136
:103930003102892B90913202892B11F00E945A0D8D
:1039400085E0FE013196AEE2B2E001900D928A95DB
:10395000E1F70E94B30690913302891709F4FBCE78
:103960000E94B30680933302F4CE809168028430C3
:1039700009F1109219020FB6F894A895E092600030
:103980000FBEA092600083B7817F846083BF83B73E
:10399000816083BF7894889583B78E7F83BF0FB68D
:1039A000F894A895809160008861809360001092DF
:1039B00060000FBE809167028823D1F00E94A50BA2
:1039C00090E090930701809306010E9496090E945F
:1039D000A509EAE1F2E01192CE16DF06E1F70E94B6
:1039E000D919EAE1F2E08191811138C0BE12FBCF12
:1039F00080916802853009F4B8CF0E940D0E0E94B4
:103A0000B306B0CE9F5F990C963009F0BDCE0F5F24
:103A10001F4F0E30110509F0ADCE8FEF8B878C87CD
:103A20001D860E944E0D8160782F9F878E874B8563
:103A30005C856D858F850E944D19C3CE81E0809392
:103A40002F021BCF81E08093300220CF81E0809352
:103A500031025FCF81E08093320264CF09BD19BD8E
:103A600009B400FEFDCF8091D8008F7D8093D800EF
:103A70008091E00082608093E0008091E00081FD11
:103A8000FCCF0E940D0EB4CF2139314008F013CF86
:103A900049CF232B09F0C3CEF9CE1F921FB61F9238
:103AA00011248F939F93AF93BF938091190281113B
:103AB00013C08091F8019091F901A091FA01B091A1
:103AC000FB014196A11DB11D8093F8019093F9016E
:103AD000A093FA01B093FB01BF91AF919F918F9199
:103AE0001F901FBE1F9018951092B9008CE0809314
:103AF000B8000895EF92FF920F931F93CF93DF9337
:103B0000182FEB011092BC0084EA8093BC000E9445
:103B10004E0D7C018091BC0087FF27C08091B900C9
:103B2000887F883029F08091B900887F8031D9F56D
:103B30001093BB0084E88093BC000E944E0D8C0162
:103B40008091BC0087FF24C02091B900287F90E0BD
:103B500080E02831B1F081E090E0203411F490E071
:103B600080E09195819591090CC0CF3FDC0791F2DF
:103B70000E944E0D8E199F098C179D0758F28EEFEB
:103B80009FEFDF91CF911F910F91FF90EF900895DC
:103B9000CF3FDC07A9F20E944E0D801B910B8C17C2
:103BA0009D0770F2ECCF8FEF9FEFEBCF0F931F933A
:103BB000CF93DF93EB018093BB0084E88093BC003C
:103BC0000E944E0D8C018091BC0087FF11C0209196
:103BD000B900287F81E090E0283211F490E080E085
:103BE000919581959109DF91CF911F910F91089542
:103BF000CF3FDC0741F30E944E0D801B910B8C17C9
:103C00009D0708F38EEF9FEFEECF0F931F93CF9397
:103C1000DF93EC0184E88093BC000E944E0D8C0180
:103C20008091BC0087FF08C08091BB0090E0DF91CD
:103C3000CF911F910F910895CF3FDC0789F30E9428
:103C40004E0D801B910B8C179D0750F38EEF9FEF4D
:103C5000EECF84E98093BC000895AA1BBB1B51E101
:103C600007C0AA1FBB1FA617B70710F0A61BB70BEC
:103C7000881F991F5A95A9F780959095BC01CD0191
:103C8000089597FB072E16F4009407D077FD09D00E
:103C90000E942D1E07FC05D03EF4909581959F4F04
:103CA0000895709561957F4F0895EE0FFF1F059061
:103CB000F491E02D0994F999FECF92BD81BDF89A57
:103CC000992780B50895A6E1B0E044E050E00C9457
:103CD000951EA8E1B0E042E050E00C94951E262F1E
:103CE000F999FECF92BD81BDF89A019700B40216F2
:103CF00039F01FBA20BD0FB6F894FA9AF99A0FBEA0
:103D000008950396272F0E94701E0E946F1E252F74
:103D10000E94701E242F0C94701E0196272F0E9463
:103D2000701E0C946F1EDC01CB01FC01F999FECFD3
:103D300006C0F2BDE1BDF89A319600B40D92415033
:103D40005040B8F708950F931F93CF93DF938230BD
:103D5000910510F482E090E0E0917702F091780212
:103D600030E020E0B0E0A0E0309799F42115310573
:103D700009F447C0281B390B24303105C0F58A816E
:103D80009B816115710571F1FB0193838283FE01B3
:103D900011C0408151810281138148175907F8F001
:103DA0004817590799F4109761F012960C931297DF
:103DB00013961C933296CF01DF91CF911F910F91F3
:103DC00008950093770210937802F4CF21153105FE
:103DD00019F04217530718F49A01BD01EF01DF01F2
:103DE000F801C2CF9093780280937702D0CFFE0182
:103DF000E20FF31F81939193225031093983288375
:103E0000DACF2091750230917602232B41F4209174
:103E100002013091030130937602209375022091C4
:103E20000001309101012115310541F42DB73EB754
:103E30004091040150910501241B350B40917502FE
:103E4000509176024217530708F0B5CF241B350B6B
:103E50002817390708F4AFCFBC016E5F7F4F2617D4
:103E6000370708F4A8CF640F751F7093760260932C
:103E70007502FA01819391939ECFCF93DF930097C0
:103E8000E9F0FC01329713821282C0917702D0913F
:103E90007802DE0130E020E02097A1F4208131811A
:103EA000820F931F209175023091760228173907EF
:103EB00009F067C0F0937602E0937502DF91CF912D
:103EC0000895DA01AE17BF0708F040C012964D9171
:103ED0005C9113979D014115510599F7D9011396EE
:103EE000FC93EE9312974D915D91A40FB51FEA17C5
:103EF000FB0779F4808191810296840F951FD90187
:103F000011969C938E938281938113969C938E93AA
:103F10001297B0E0A0E08A819B810097B9F5FE017D
:103F200081919191E80FF91F80917502909176022D
:103F30008E179F0719F6109761F51092780210926C
:103F40007702D0937602C0937502B8CFB383A28371
:103F500040815181840F951FA817B90771F44E5FF6
:103F60005F4F8D919C911197480F591F518340834A
:103F700012968D919C91938382832115310509F0CE
:103F8000ADCFF0937802E093770298CFDE01EC0199
:103F9000C2CF13961C921E921297D3CFF894FFCFE4
:103FA000F908F908020902090409020902090209CB
:103FB000F908F90809090209020909097D098909AD
:103FC0008E0987098C0993099109070F2F0FCB10D0
:103FD0002F0FCB10620F830FCB1081108E10AF14F8
:103FE000AF142915291577159115E414E4149C15BF
:063FF00072168116811615
:103FF600000079022000200026040E0AED09E909D6
:10400600E50901818283E200E900EA00B500B60015
:10401600B700CD008301CC008A01920194012102F0
:10402600230224022502260227022A02B300B40034
:104036006F007000404D6D66011901AC00580471A7
:04404600048A0400E4
:00000001FF
